S00B00004156522E7372656330
S113000019C033C032C031C0BBC02FC02EC02DC0F8
S11300102CC02BC02AC029C028C027C026C025C098
S113002024C023C022C021C020C01FC01EC01DC0C8
S11300301CC01BC011241FBECFEFD4E0DEBFCDBF58
S113004011E0A0E0B1E0EAE6F2E002C005900D9212
S1130050A030B107D9F721E0A0E0B1E001C01D92C2
S1130060A430B207E1F7DFD0FEC0CACF14B887E0EE
S113007087B982E68AB9089515B818B81BB80895E7
S113008083EF84BD81E085BD0895519A1092C50027
S113009089E18093C40088E18093C10086E0809365
S11300A0C200089582E08093680080E380936C002E
S11300B0089598B121E030E002C0220F331F8A95E1
S11300C0E2F72095922398B9089548B121E030E0F1
S11300D0B90102C0660F771F8A95E2F7CB01842B22
S11300E088B9089582E090E0E4DF80E090E0EDDFFD
S11300F08091020190910301853F910530F40A96A5
S1130100909303018093020108958FEF90E0909300
S1130110030180930201089580E090E0CADF82E049
S113012090E0D3DF80910201909103018B3091051F
S113013030F00A979093030180930201089510927E
S1130140030110920201089591DF96DF99DF9DDF8C
S1130150A9DF0895FC016083718367BD68BD0895BC
S1130160E0ECF0E0908195FFFDCF8093C600089508
S1130170E0ECF0E080818823ECF78091C6000895DC
S11301801F920F920FB60F9211242F933F934F9308
S11301905F936F937F938F939F93AF93BF93CF930B
S11301A0DF93EF93FF93C6B1C072D0E026B124FB76
S11301B0882780F990E0D295C295CF70CD27DF7063
S11301C0CD27C82BD92B209721F0C130D10559F068
S11301D013C08091000190910101029711F482DF14
S11301E00BC09ADF09C08091000190910101892B15
S11301F011F478DF01C090DFD0930101C0930001B6
S1130200FF91EF91DF91CF91BF91AF919F918F912A
S11302107F916F915F914F913F912F910F900FBEFE
S11302200F901F901895CF93DF9300D0CDB7DEB712
S11302301092010110920001109203011092020128
S113024083DF8E010F5F1F4F6091020170910301E4
S1130250C80180DF8C018CDF83DF8FEF9FE3019780
S10D0260F1F700C0F1CFF894FFCFCE
S9030000FC
