:1000000021C03BC03AC039C0CBC037C036C035C0B4
:1000100034C033C032C031C030C02FC02EC02DC05C
:100020002CC02BC02EC129C028C027C026C025C087
:1000300024C023C0F2C118C229C23AC24BC25CC25A
:100040006DC27EC211241FBECFEFD4E0DEBFCDBF94
:1000500011E0A0E0B1E0EEE5FFE002C005900D92F6
:10006000A630B107D9F721E0A6E0B1E001C01D92AA
:10007000A13BB207E1F75ED170C7C2CFAF92BF928A
:10008000CF92DF92EF92FF920F931F93CF93DF9364
:100090008091A1019091A2019C01220F331F220F98
:1000A000331F220F331F3093A6012093A501982FF1
:1000B0008827A12C0F2EFCE0BF2EF02DC12CD12CB7
:1000C000E12CF12C00E010E0282F392F40E050E027
:1000D00060E070E080E090E065D205E0F3D2D22FDE
:1000E000C32FC42ED52EE62EF72EE82F192F01E0B0
:1000F000E9D2445E514B614F7F4F8F4F9F4FAD2EE2
:10010000BC2E0E2F44D2822F932FAC0156954795CB
:10011000529542954F7045275F7045275093AC012B
:100120004093AB01D0939D01C0939E01E3E9F1E0C0
:1001300023E131E09291829193838283E217F30766
:10014000C9F75093160140931501DF91CF911F918C
:100150000F91FF90EF90DF90CF90BF90AF900895F8
:1001600080919B0190919C012091070130910801A1
:100170008217930748F420953095280F391F309344
:10018000A2012093A10107C0AC01421B530B509365
:10019000A2014093A1019093080180930701089563
:1001A0001F920F920FB60F9211248F939F93F89482
:1001B000809184009091850090939C0180939B0195
:1001C00081E08093060178949F918F910F900FBEEC
:1001D0000F901F9018950F931F93CF93DF9300D02C
:1001E00000D000D0CDB7DEB7E82FF92FDF010D909A
:1001F0000020E9F711978D010E1B1F0BA801682F36
:10020000792FCE01019699D30630110524F5C80146
:10021000019620E230E0E1E0F0E0EC0FFD1FE00F9E
:10022000F11F318320838C0101968730910599F766
:1002300012C0408145FFFDCFDB014D91BD01DC01C6
:100240004C93A1EEB4E01197F1F700C000006217E3
:10025000730779F70BC0BE016F5F7F4F9E012A5F66
:100260003F4FE0ECF0E086EC90E0E3CF26960FB64F
:10027000F894DEBF0FBECDBFDF91CF911F910F91DC
:1002800008951F920F920FB60F9211242F938F9300
:100290009F93AF93BF93CF93DF93EF93FF93F89424
:1002A0004298419AA5E9B1E08AE991E0E0ECF0E0FA
:1002B000C6ECD0E020812223ECF728812D93A817EB
:1002C000B907C1F74198429A81E080939A017894E6
:1002D000FF91EF91DF91CF91BF91AF919F918F915E
:1002E0002F910F900FBE0F901F90189584B184B975
:1002F00087B1876087B98AB182668AB983EF84BD86
:1003000081E085BD519A1092C50089E18093C400B7
:1003100088E98093C10086E08093C20082E08093E8
:10032000680080E380936C00E1E8F0E08081826007
:1003300080830895CF93DF93CDB7DEB72C970FB6A8
:10034000F894DEBF0FBECDBF1092A00110929F01A6
:1003500082E390E09093AA018093A9011092A801F2
:100360001092A70110920C0110920B0110929A01A9
:10037000109206011092AE011092AD0110920A0186
:100380001092090110929C0110929B011092080199
:1003900010920701ABDF78948E010F5F1F4F7E0133
:1003A00087E0E80EF11C0F2EF5E24F2E542C32019F
:1003B000F02D0F2EF5E9AF2EF1E0BF2EF02D0F2E10
:1003C000F3E0CF2EF1E0DF2EF02D0F2EF0E08F2E98
:1003D000F1E09F2EF02D0F2EF7EA2F2EF1E03F2EA9
:1003E000F02D80919A01882309F4C5C046E050E0C1
:1003F00060E270E0C8019AD2F701408251826282C5
:100400007382F501808190E0FC01F297E830F105FC
:1004100008F0A7C0E65EFF4F099443E050E066E9AC
:1004200071E0C7018AD2FBE3FA874AE050E0BE01DF
:10043000655F7F4FC70161D17093A8016093A701E9
:10044000FF92EF921F930F9387D246E050E060E255
:1004500070E0C8016BD2F101808188BD87BD0F902B
:100460000F900F900F907DC08091A8018F93809185
:10047000A7018F939F928F921F930F936DD20F902E
:100480000F900F900F900F900F906BC080910C0108
:100490008F9380910B018F939F928F921F930F9355
:1004A0005BD20F900F900F900F900F900F9059C04C
:1004B0008091A2018F938091A1018F93DF92CF92BF
:1004C0001F930F9349D20F900F900F900F900F90A2
:1004D0000F9047C080910A018F93809109018F93FB
:1004E000DF92CF921F930F9337D20F900F900F9000
:1004F0000F900F900F9035C080919E018F93809147
:100500009D018F93DF92CF921F930F9325D20F906F
:100510000F900F900F900F900F9023C08091A60125
:100520008F938091A5018F93DF92CF921F930F93AA
:1005300013D20F900F900F900F900F900F9011C04B
:100540008091AC018F938091AB018F93DF92CF921A
:100550001F930F9301D20F900F900F900F900F9059
:100560000F90C80138DE46E050E060E270E0C8015C
:10057000DDD110929A0180910601882309F431CFD0
:10058000EFDD7CDD109206012CCF689401C0E89469
:100590008F929F92CF93DF9356D0DF91CF919F9010
:1005A0008F900895DF93CF931F930F939A9DF02D13
:1005B000219FF00D8B9DF00D8A9DE02DF10D039F85
:1005C000F00D029FE00DF11D4E9DE00DF11D5E9DB1
:1005D000F00D4F9DF00D7F936F93BF92AF925F939D
:1005E0004F93D5017ED08B01AC01D7017AD0EB01BE
:1005F000E80FF91FD6011FD02F913F91D60171D07E
:10060000C60FD71FE81FF91FAF91BF9114D02F91CC
:100610003F9167D0C60FD71FE81FF91FD60161D0E1
:10062000E60FF71F9801BE01CF0111240F911F9112
:10063000CF91DF91089555D0460F571FC81FD91F7E
:1006400008F43196089588249924F401E401B0E473
:100650001B2ED4019D158E049F04E007F10738F48A
:10066000FC014B01CA01B901AD019E011694220F94
:10067000331F441F551F661F771F881F991F881C33
:10068000991CEE1FFF1FCC1FDD1FAA1FBB1F8A1462
:100690009B04EC05FD05CE05DF05A007B10748F07A
:1006A0008A189B08EC09FD09CE09DF09A00BB10BE4
:1006B00021601A94E1F62EF49401AF01BE01CD0140
:1006C000000C08950F930F7351F0969587957795C9
:1006D000679557954795379527950A95B1F70F91E7
:1006E0000895A29FB001B39FC001A39F01D0B29F04
:1006F000700D811D1124911D0895A0E0B0E0E2E885
:10070000F3E0F6C35B01EA016115710519F0FB0125
:1007100080839183209739F09E0122503109233242
:10072000310508F0E3C07C01F70191907F018F0152
:10073000892D90E0F3D0892BB9F7FDE29F1206C016
:10074000F70191908F018824839407C0FBE29F12E8
:1007500003C0F70191908F01812C209709F4D4C038
:10076000C031D10581F4CCC0F8018081883719F0FF
:10077000883509F0BFC0F80191800E5F1F4FF2E08D
:100780008F2AC0E1D0E0C830D105D9F024F4C230BE
:10079000D105F9F407C0CA30D10551F0C031D105F7
:1007A000C1F424C0C12CD12CE12C40E4F42E23C090
:1007B000CAE0D0E03CECC32EDC2CEC2C3CE0F32E69
:1007C0001AC0C8E0D0E0C12CD12CE12C20E1F22EDF
:1007D00012C09E01442737FD4095542F60E070E021
:1007E00080E090E857D369017A0105C0C12CD12C73
:1007F000E12C98E0F92E40E060E070E0CB012E01A2
:10080000662457FC6094762CE92DE053EA3060F0C2
:10081000292D21542A3110F4E75006C0292D2156E4
:100820002A3120F5E92DE7552E2F30E02C173D0712
:10083000ECF447FD17C0C616D706E806F90678F0AF
:100840009B01AC01C301B20116D36E0F711D811D56
:10085000911D61307105810520E8920710F04FEF7E
:1008600001C041E0F80191908F01CECFA114B104F5
:1008700081F0442331F001501109F5011183008307
:1008800008C081FE1AC002501109F50111830083CE
:1008900014C047FF12C080FE05C060E070E080E039
:1008A00090E804C06FEF7FEF8FEF9FE722E230E028
:1008B0003093B0012093AF0116C080FE08C0909520
:1008C0008095709561957F4F8F4F9F4F0CC097FF1C
:1008D0000AC082E290E09093B0018093AF016FEF85
:1008E0007FEF8FEF9FE78B019C0112C000E010E0CB
:1008F00098010EC080E3982E209709F462CF43CF71
:10090000F0E39F1240CF30CF20E3921251CF2CCF93
:10091000B801C901CDB7DEB7E0E106C3911108C245
:10092000803219F089508550D0F70895DC0101C05C
:100930006D9341505040E0F70895FB01DC014150B8
:10094000504048F001900D920020C9F701C01D925F
:1009500041505040E0F70895AEE0B0E0E1EBF4E044
:10096000D3C20D891E8986E08C831A8309838FEF99
:100970009FE79E838D83CE014996AC016F89788D68
:10098000CE01019608D0EF81F885E00FF11F1082AB
:100990002E96E4E0D5C2ACE0B0E0E0EDF4E0A6C213
:1009A0007C016B018A01FC0117821682838181FF21
:1009B000B9C188248394912C8C0E9D1EF7019381DC
:1009C000F60193FD859193FF81916F01882309F4CE
:1009D000A5C1853239F493FD859193FF81916F0113
:1009E000853221F4B70190E0BCD1E8CF512C312CF5
:1009F00020E02032A8F48B3261F028F4803251F0EC
:100A0000833271F40BC08D3239F0803349F42160A8
:100A100028C02260246025C0286023C0206121C036
:100A200027FD27C0382F30533A3078F426FF06C010
:100A3000FAE05F9E300D1124532E13C08AE0389ED9
:100A4000300D1124332E20620CC08E3221F426FD8D
:100A500065C1206406C08C3611F4206802C0883657
:100A600041F4F60193FD859193FF81916F0181110E
:100A7000C0CF982F9554933018F09052933028F4AB
:100A80000C5F1F4FFFE3F9830DC0833631F08337CE
:100A900071F0833509F05AC022C0F8018081898342
:100AA0000E5F1F4F44244394512C540114C038014D
:100AB000F2E06F0E711CF801A080B18026FF03C028
:100AC000652D70E002C06FEF7FEFC5012C873ED12E
:100AD0002C0183012C856FE7262E222217C03801B6
:100AE000F2E06F0E711CF801A080B18026FF03C0F8
:100AF000652D70E002C06FEF7FEFC5012C871BD121
:100B00002C012C8550E8252E222A830123FC1AC0B3
:100B100005C0B70180E290E024D13A94832D90E0A3
:100B200048165906B0F30EC0F50127FC859127FE43
:100B300081915F01B70190E014D131103A94F1E056
:100B40004F1A51084114510479F7E5C0843611F069
:100B5000893639F5F80127FF07C0608171818281EC
:100B600093810C5F1F4F08C060817181882777FDDA
:100B70008095982F0E5F1F4F4FE6B42EB22297FF3D
:100B800009C090958095709561957F4F8F4F9F4FCD
:100B9000F0E8BF2A2AE030E0A4010FD1A82EA8185F
:100BA00042C0853731F43FEEB32EB2222AE030E066
:100BB00024C099EFB92EB2228F36B9F020F48835CF
:100BC00009F0ACC00DC0803721F0883709F0A6C00D
:100BD00002C020E1B22AB4FE0BC084E0B82A08C0EB
:100BE00024FF09C0E6E0BE2A06C028E030E005C0C8
:100BF00020E130E002C020E132E0F801B7FE07C09A
:100C000060817181828193810C5F1F4F06C060817A
:100C1000718180E090E00E5F1F4FA401CED0A82E1E
:100C2000A818FFE7BF22B6FE0BC02B2D2E7FA51400
:100C300050F4B4FE0AC0B2FC08C02B2D2E7E05C0B5
:100C40007A2C2B2D03C07A2C01C0752C24FF0DC0EB
:100C5000FE01EA0DF11D8081803311F4297E09C067
:100C600022FF06C07394739404C0822F867809F023
:100C7000739423FD13C020FF0EC05A2C731458F434
:100C8000530C5718732C07C0B70180E290E02C87F3
:100C900068D073942C857314B8F304C0731410F4E3
:100CA000371801C0312C24FF11C0B70180E390E058
:100CB0002C8757D02C8522FF1CC021FF03C088E55C
:100CC00090E002C088E790E0B7010CC0822F8678E0
:100CD00081F021FD02C080E201C08BE227FD8DE2A0
:100CE000B70190E03ED005C0B70180E390E039D075
:100CF0005A94A514C8F3AA94F401EA0DF11DB701A2
:100D0000808190E02ED0A110F6CF05C0B70180E21F
:100D100090E027D03A943110F9CF50CEF7012681D8
:100D2000378102C02FEF3FEFC9012C96E2E1FAC0F4
:100D3000992788270895FC010590615070400110A3
:100D4000D8F7809590958E0F9F1F0895FC016150F4
:100D5000704001900110D8F7809590958E0F9F1FDD
:100D600008950F931F93CF93DF938C01EB018B8139
:100D700081FD03C00FEF1FEF1AC082FF0DC02E814F
:100D80003F818C819D812817390764F4E881F981BE
:100D90000193F983E88306C0E885F985802F0995DA
:100DA000892B41F78E819F8101969F838E83C80195
:100DB000DF91CF911F910F910895FA01AA27283052
:100DC00051F1203181F1E8946F936E7F6E5F7F4F18
:100DD0008F4F9F4FAF4FB1E03ED0B4E03CD0670F94
:100DE000781F891F9A1FA11D680F791F8A1F911DE7
:100DF000A11D6A0F711D811D911DA11D20D009F437
:100E000068943F912AE0269F11243019305D319378
:100E1000DEF6CF010895462F4770405D4193B3E061
:100E20000FD0C9F7F6CF462F4F70405D4A3318F008
:100E3000495D31FD4052419302D0A9F7EACFB4E0B9
:100E4000A6959795879577956795BA95C9F7009771
:100E50006105710508959B01AC010A2E0694579512
:100E6000479537952795BA95C9F7620F731F841F69
:100E7000951FA01D0895DB018F939F932DD0BF91E7
:100E8000AF91A29F800D911DA39F900DB29F900DD9
:100E900011240895A1E21A2EAA1BBB1BFD010DC04F
:100EA000AA1FBB1FEE1FFF1FA217B307E407F5071A
:100EB00020F0A21BB30BE40BF50B661F771F881FF6
:100EC000991F1A9469F760957095809590959B018C
:100ED000AC01BD01CF01089504DCA59F900DB49F26
:100EE000900DA49F800D911D112408952F923F9283
:100EF0004F925F926F927F928F929F92AF92BF922A
:100F0000CF92DF92EF92FF920F931F93CF93DF93D5
:100F1000CDB7DEB7CA1BDB0B0FB6F894DEBF0FBE32
:100F2000CDBF09942A88398848885F846E847D847F
:100F30008C849B84AA84B984C884DF80EE80FD8081
:100F40000C811B81AA81B981CE0FD11D0FB6F894F7
:0E0F5000DEBF0FBECDBFED010895F894FFCFB8
:060F5E002564002575006A
:00000001FF
