:1000000023C03DC03CC03BC05EC139C038C037C012
:1000100036C035C034C033C032C031C030C02FC04C
:100020002EC02DC0C1C12BC02AC029C028C027C0E6
:1000300026C025C039C23CC23FC242C245C248C2E6
:100040004BC24EC251C254C211241FBECFEFD4E0E6
:10005000DEBFCDBF11E0A0E0B1E0E0ECFEE002C009
:1000600005900D92AA30B107D9F721E0AAE0B1E0DE
:1000700001C01D92A331B207E1F7EFD11FC7C0CF76
:10008000FC0111821082138212821582148217825F
:100090001682108611861286138614861586168699
:1000A0001786E05FFE4F108211821282138208953C
:1000B0002F923F924F925F926F927F928F929F9278
:1000C000AF92BF92CF92DF92EF92FF920F931F9366
:1000D000CF93DF93EC012E803F80C101A0E0B0E020
:1000E000880F991FAA1FBB1F880F991FAA1FBB1F2C
:1000F000880F991FAA1FBB1F880F991FAA1FBB1F1C
:10010000880F991FAA1FBB1F880F991FAA1FBB1F0B
:10011000880F991FAA1FBB1F880F991FAA1FBB1FFB
:10012000FE01E05FFE4F80839183A283B3831C01B5
:100130002D01A12C0F2EFCE0BF2EF02DC12CD12CB7
:10014000E12CF12C00E010E0282F332D442D552D0B
:1001500060E070E080E090E0FED205E08CD3A22E5B
:10016000B32EC42ED52EE62EF72EE82F192F01E040
:1001700082D3445E514B614F7F4F8F4F9F4F0E2F65
:10018000DFD2822F932FA42FB52F722F632F542FDE
:100190004B2F689414F8B695A79597958795169464
:1001A000D1F788879987AA87BB87FE01E45FFE4F56
:1001B0002FE330E021503109B291A29192918291C6
:1001C00084839583A683B7832F3F8FEF380791F7FA
:1001D000788B698B5A8B4B8BDF91CF911F910F914D
:1001E000FF90EF90DF90CF90BF90AF909F908F9057
:1001F0007F906F905F904F903F902F9008952F9237
:100200003F924F925F926F927F928F929F92AF92A6
:10021000BF92CF92DF92EF92FF920F931F93CF93F3
:10022000DF93EC01DC015096E0E4F0E020E030E008
:1002300040E050E060E070E080E090E0CD90DD9044
:10024000ED90FD9016012701AC2CB32CC42CD52CBD
:10025000E12CF12C00E010E01DD3319779F706E096
:100260000AD305E008D32C873D874E875F87DF914F
:10027000CF911F910F91FF90EF90DF90CF90BF90A3
:10028000AF909F908F907F906F905F904F903F9036
:100290002F900895FC012481358180911001909167
:1002A00011018217930738F420953095280F391FD4
:1002B0003783268305C0AC01421B530B578346830B
:1002C0009583848308951F920F920FB60F92112485
:1002D0008F939F93F89480918400909185009093E0
:1002E00011018093100181E08093120178949F9115
:1002F0008F910F900FBE0F901F9018950F931F9323
:10030000CF93DF9300D000D000D0CDB7DEB7E82F79
:10031000F92FDF010D900020E9F711978D010E1BD9
:100320001F0BA801682F792FCE010196C8D2063085
:10033000110524F5C801019620E230E0E1E0F0E08B
:10034000EC0FFD1FE00FF11F318320838C0101961C
:100350008730910599F712C0408145FFFDCFDB0141
:100360004D91BD01DC014C93A1EEB4E01197F1F782
:1003700000C000006217730779F70BC0BE016F5F02
:100380007F4F9E012A5F3F4FE0ECF0E086EC90E06B
:10039000E3CF26960FB6F894DEBF0FBECDBFDF9138
:1003A000CF911F910F9108951F920F920FB60F9248
:1003B00011242F938F939F93AF93BF93CF93DF938A
:1003C000EF93FF93F8944298419AAAE0B1E08FE04E
:1003D00091E0E0ECF0E0C6ECD0E020812223ECF7E5
:1003E00028812D93A817B907C1F74198429A81E057
:1003F00080930F017894FF91EF91DF91CF91BF919E
:10040000AF919F918F912F910F900FBE0F901F90E2
:10041000189584B184B987B1876087B98AB182663B
:100420008AB983EF84BD81E085BD519A1092C500E1
:1004300089E18093C40088E98093C10086E08093BD
:10044000C20082E08093680080E380936C00E1E862
:10045000F0E08081826080830895CF93DF93CDB7F1
:10046000DEB7C451D1400FB6F894DEBF0FBECDBF8A
:1004700007DE10920F0110921201109211011092DA
:100480001001C7DF78940AE011E080910F01882302
:10049000A1F1F801808190E0FC01F097EA30F105CC
:1004A00050F5E65EFF4F0994CE01019636D023C089
:1004B000CE01019633D01FC0CE01019630D01BC0B3
:1004C000CE01019644D017C0CE0101966BD013C067
:1004D000CE0101968BD00FC0CE010196B4D00BC0D7
:1004E000CE010196D7D007C0CE010196D4D003C06B
:1004F000CE010196FCD010920F0180911201882349
:1005000021F2CE010196C6DECE010196D1DDCE01EB
:10051000019675DE10921201B8CF08950895CF9319
:10052000DF9300D000D000D0CDB7DEB72CE330E0B1
:10053000FC0131832083CE010196E0DE26960FB6C2
:10054000F894DEBF0FBECDBFDF91CF9108950F931A
:100550001F93CF93DF9300D000D000D0CDB7DEB78C
:10056000FC0121812F9380818F9380E091E09F9304
:100570008F938E010F5F1F4F1F930F93DCD1C80124
:10058000BDDE0F900F900F900F900F900F9026965A
:100590000FB6F894DEBF0FBECDBFDF91CF911F9194
:1005A0000F910895CF93DF9300D000D000D0CDB746
:1005B000DEB7FC0123812F9382818F9380E091E04D
:1005C0009F938F93CE0101969F938F93B4D10F90F9
:1005D0000F900F900F900F900F9026960FB6F894F3
:1005E000DEBF0FBECDBFDF91CF9108950F931F9354
:1005F000CF93DF9300D000D000D0CDB7DEB7FC01A1
:1006000027812F9386818F9383E091E09F938F932F
:100610001F9286E08F938E010F5F1F4F1F930F93E2
:100620005DD1C8016BDE0FB6F894DEBF0FBECDBF43
:1006300026960FB6F894DEBF0FBECDBFDF91CF91E7
:100640001F910F910895CF93DF9300D000D000D079
:10065000CDB7DEB7FC0187858F9386858F9385851F
:100660008F9384858F9386E091E09F938F93CE0143
:1006700001969F938F935FD10FB6F894DEBF0FBEA4
:10068000CDBF26960FB6F894DEBF0FBECDBFDF916B
:10069000CF91089508950F931F93CF93DF9300D0C8
:1006A00000D000D0CDB7DEB78AEE8F9380E68F936F
:1006B00083E091E09F938F931F9286E08F938E014A
:1006C0000F5F1F4F1F930F9309D1C80117DE0FB69D
:1006D000F894DEBF0FBECDBF26960FB6F894DEBFEE
:1006E0000FBECDBFDF91CF911F910F910895CF9392
:1006F000DF9300D000D000D0CDB7DEB7FC018385FA
:100700008F9382858F9381858F9380858F9386E0E9
:1007100091E09F938F93CE0101969F938F930BD17E
:100720000FB6F894DEBF0FBECDBF26960FB6F89475
:10073000DEBF0FBECDBFDF91CF910895689401C099
:10074000E8948F929F92CF93DF9356D0DF91CF9111
:100750009F908F900895DF93CF931F930F939A9D4F
:10076000F02D219FF00D8B9DF00D8A9DE02DF10D58
:10077000039FF00D029FE00DF11D4E9DE00DF11D58
:100780005E9DF00D4F9DF00D7F936F93BF92AF92E2
:100790005F934F93D50187D08B01AC01D70183D0F4
:1007A000EB01E80FF91FD6011FD02F913F91D60121
:1007B0007AD0C60FD71FE81FF91FAF91BF9114D091
:1007C0002F913F9170D0C60FD71FE81FF91FD60198
:1007D0006AD0E60FF71F9801BE01CF0111240F91D7
:1007E0001F91CF91DF9108955ED0460F571FC81F0C
:1007F000D91F08F43196089588249924F401E4015E
:10080000B0E41B2ED4019D158E049F04E007F10770
:1008100038F4FC014B01CA01B901AD019E011694E7
:10082000220F331F441F551F661F771F881F991FF4
:10083000881C991CEE1FFF1FCC1FDD1FAA1FBB1FAA
:100840008A149B04EC05FD05CE05DF05A007B10762
:1008500048F08A189B08EC09FD09CE09DF09A00BB6
:10086000B10B21601A94E1F62EF49401AF01BE01A0
:10087000CD01000C08950F930F7351F09695879555
:100880007795679557954795379527950A95B1F7C9
:100890000F9108952A0D3B1D4C1D5D1D6E1D7F1D82
:1008A000801F911F0895A29FB001B39FC001A39F15
:1008B00001D0B29F700D811D1124911D0895FB017F
:1008C000DC014150504048F001900D920020C9F7E2
:1008D00001C01D9241505040E0F70895AEE0B0E0F5
:1008E000E3E7F4E0C2C20D891E898F89988D26E066
:1008F0002C831A83098397FF02C080E090E8019758
:100900009E838D83CE014B96AC01698D7A8DCE018D
:10091000019630D04D815E8157FD0AC02F81388508
:10092000421753070CF49A01F801E20FF31F1082EB
:100930002E96E4E0B6C2AEE0B0E0E0EAF4E095C2A4
:100940000D891E8986E08C831A8309838FEF9FE7C8
:100950009E838D83CE014996AC016F89788DCE013F
:10096000019608D0EF81F885E00FF11F10822E96D6
:10097000E4E097C2ACE0B0E0EFEBF4E068C27C01E9
:100980006B018A01FC0117821682838181FFB9C144
:1009900088248394912C8C0E9D1EF7019381F6017F
:1009A00093FD859193FF81916F01882309F4A5C17F
:1009B000853239F493FD859193FF81916F018532E2
:1009C00021F4B70190E0B9D1E8CF512C312C20E0CF
:1009D0002032A8F48B3261F028F4803251F0833257
:1009E00071F40BC08D3239F0803349F4216028C096
:1009F0002260246025C0286023C0206121C027FD1B
:100A000027C0382F30533A3078F426FF06C0FAE07A
:100A10005F9E300D1124532E13C08AE0389E300D96
:100A20001124332E20620CC08E3221F426FD65C1C4
:100A3000206406C08C3611F4206802C0883641F468
:100A4000F60193FD859193FF81916F018111C0CFD4
:100A5000982F9554933018F09052933028F40C5FEF
:100A60001F4FFFE3F9830DC0833631F0833771F0F8
:100A7000833509F05AC022C0F801808189830E5F56
:100A80001F4F44244394512C540114C03801F2E008
:100A90006F0E711CF801A080B18026FF03C0652D88
:100AA00070E002C06FEF7FEFC5012C873BD12C01B6
:100AB00083012C856FE7262E222217C03801F2E031
:100AC0006F0E711CF801A080B18026FF03C0652D58
:100AD00070E002C06FEF7FEFC5012C8718D12C01A9
:100AE0002C8550E8252E222A830123FC1AC005C03C
:100AF000B70180E290E021D13A94832D90E048162E
:100B00005906B0F30EC0F50127FC859127FE8191AF
:100B10005F01B70190E011D131103A94F1E04F1A22
:100B200051084114510479F7E5C0843611F0893633
:100B300039F5F80127FF07C06081718182819381B7
:100B40000C5F1F4F08C060817181882777FD8095F9
:100B5000982F0E5F1F4F4FE6B42EB22297FF09C0A9
:100B600090958095709561957F4F8F4F9F4FF0E8DE
:100B7000BF2A2AE030E0A4010CD1A82EA81842C058
:100B8000853731F43FEEB32EB2222AE030E024C0A4
:100B900099EFB92EB2228F36B9F020F4883509F0DA
:100BA000ACC00DC0803721F0883709F0A6C002C064
:100BB00020E1B22AB4FE0BC084E0B82A08C024FFAA
:100BC00009C0E6E0BE2A06C028E030E005C020E10A
:100BD00030E002C020E132E0F801B7FE07C06081DA
:100BE0007181828193810C5F1F4F06C0608171818A
:100BF00080E090E00E5F1F4FA401CBD0A82EA81874
:100C0000FFE7BF22B6FE0BC02B2D2E7FA51450F49C
:100C1000B4FE0AC0B2FC08C02B2D2E7E05C07A2C73
:100C20002B2D03C07A2C01C0752C24FF0DC0FE01B2
:100C3000EA0DF11D8081803311F4297E09C022FF65
:100C400006C07394739404C0822F867809F073945D
:100C500023FD13C020FF0EC05A2C731458F4530CFC
:100C60005718732C07C0B70180E290E02C8765D03D
:100C700073942C857314B8F304C0731410F43718EC
:100C800001C0312C24FF11C0B70180E390E02C8714
:100C900054D02C8522FF1CC021FF03C088E590E0C2
:100CA00002C088E790E0B7010CC0822F867881F0FF
:100CB00021FD02C080E201C08BE227FD8DE2B70179
:100CC00090E03BD005C0B70180E390E036D05A9465
:100CD000A514C8F3AA94F401EA0DF11DB7018081AF
:100CE00090E02BD0A110F6CF05C0B70180E290E0D4
:100CF00024D03A943110F9CF50CEF70126813781B4
:100D000002C02FEF3FEFC9012C96E2E1BCC0FC010D
:100D10000590615070400110D8F7809590958E0F26
:100D20009F1F0895FC016150704001900110D8F799
:100D3000809590958E0F9F1F08950F931F93CF93CB
:100D4000DF938C01EB018B8181FD03C00FEF1FEF5F
:100D50001AC082FF0DC02E813F818C819D81281792
:100D6000390764F4E881F9810193F983E88306C0C7
:100D7000E885F985802F0995892B41F78E819F8120
:100D800001969F838E83C801DF91CF911F910F91B0
:100D90000895FA01AA27283051F1203181F1E89411
:100DA0006F936E7F6E5F7F4F8F4F9F4FAF4FB1E05E
:100DB0003ED0B4E03CD0670F781F891F9A1FA11D59
:100DC000680F791F8A1F911DA11D6A0F711D811D5A
:100DD000911DA11D20D009F468943F912AE0269F1F
:100DE00011243019305D3193DEF6CF010895462F7E
:100DF0004770405D4193B3E00FD0C9F7F6CF462F5F
:100E00004F70405D4A3318F0495D31FD40524193C7
:100E100002D0A9F7EACFB4E0A69597958795779584
:100E20006795BA95C9F700976105710508959B010B
:100E3000AC010A2E06945795479537952795BA9594
:100E4000C9F7620F731F841F951FA01D08952F926D
:100E50003F924F925F926F927F928F929F92AF924A
:100E6000BF92CF92DF92EF92FF920F931F93CF9397
:100E7000DF93CDB7DEB7CA1BDB0B0FB6F894DEBF2E
:100E80000FBECDBF09942A88398848885F846E8454
:100E90007D848C849B84AA84B984C884DF80EE809E
:100EA000FD800C811B81AA81B981CE0FD11D0FB6A7
:100EB000F894DEBF0FBECDBFED010895F894FFCFCB
:0A0EC000256400257500256C7500FF
:00000001FF
