S0210000536572766F2D4D6F746F722D53706565642D436F6E74726F6C2E737265638A
S113000022C03CC03BC03AC02EC338C037C036C043
S113001035C034C033C032C031C030C02FC02EC050
S11300202DC02CC098C32AC029C028C027C026C010
S113003025C024C032C436C439C43CC43FC442C4FD
S113004045C448C44BC411241FBECFEFD4E0DEBF67
S1130050CDBF11E0A0E0B1E0E4E2F5E102C005901B
S11300600D92AC31B107D9F721E0ACE1B1E001C0A8
S11300701D92A932B207E1F7DBD352CAC1CFFC010A
S113008011821082138212821582148217821682C0
S11300901086118612861386148615861686178690
S11300A0108A118A128A138A148A158A168A178A60
S11300B0E85EFD4F1082118212821382089581300E
S11300C0910539F4E1E8F0E08081108281E08083D9
S11300D00895089731F4E1E8F0E08081108282E02D
S11300E0808308954F925F926F927F928F929F9236
S11300F0AF92BF92CF92DF92EF92FF920F931F9332
S1130100CF93DF93CDB7DEB728970FB6F894DEBF51
S11301100FBECDBF4C01E0902701F0902801FC01F7
S113012080819181459734F488E090E0C8DF28E02D
S113013030E005C081E090E0C2DF21E030E0D7018B
S1130140E1D52B013C01440C551C661C771C440C66
S1130150551C661C771C440C551C661C771C440CEF
S1130160551C661C771CA301920160E070E0CB0172
S113017049823A834B835C836D837E838F83988724
S1130180A12C0F2EF6E0BF2EF02DC12CD12CE12C8A
S1130190F12C00E010E060E070E080E090E0D5D564
S11301A004E081D6A22EB32EC42ED52EE62EF72E31
S11301B0E82F192F01E077D649575C466C4F7F4FE3
S11301C08F4F9F4FD401A85EBD4F689413F8769467
S11301D06794579447941694D1F74D925D926D921B
S11301E07C9213970E2FA6D5822F932FA42FB52F71
S11301F0722F632F542F4B2F689413F8B695A7953D
S1130200979587951694D1F7F401808B918BA28BE7
S1130210B38B8B3F9105A105B105B8F4EC5EFD4F9E
S11302202FE730E021503109B291A291929182914D
S113023084839583A683B7832F3F8FEF380791F785
S1130240F401708F618F528F438F28960FB6F89404
S1130250DEBF0FBECDBFDF91CF911F910F91FF90F5
S1130260EF90DF90CF90BF90AF909F908F907F9052
S11302706F905F904F9008952F923F924F925F92AC
S11302806F927F928F929F92AF92BF92CF92DF92A2
S1130290EF92FF920F931F93CF93DF9300D000D080
S11302A000D0CDB7DEB79A838983FC018081918128
S11302B08531910554F18436910584F5E6E0F0E04A
S11302C0FC83EB83E0E4F0E0FE83ED832FC0CD906C
S11302D0DD90ED90FD9016012701AC2CB32CC42CBD
S11302E0D52CE12CF12C00E010E0ECD531960D81F9
S11302F01E81E017F1075CF30B81D5D5E981FA8102
S1130300248B358B468B578B1FC0E4E0F0E0FC83D5
S1130310EB83E0E1F0E0FE83ED8308C0E5E0F0E08C
S1130320FC83EB83E0E2F0E0FE83ED83A981BA81F4
S11303305896E0E0F0E020E030E040E050E060E09B
S113034070E080E090E0C3CF26960FB6F894DEBF4D
S11303500FBECDBFDF91CF911F910F91FF90EF9012
S1130360DF90CF90BF90AF909F908F907F906F90D1
S11303705F904F903F902F9008950F931F93CF93CA
S1130380DF9300D000D0CDB7DEB78C0143E050E05E
S11303906FE171E0CE010196DBD5CE010196BBD5AC
S11303A0F801918380830F900F900F900F90DF914D
S11303B0CF911F910F9108952F923F924F925F9288
S11303C06F927F928F929F92AF92BF92CF92DF9261
S11303D0EF92FF920F931F93CF93DF93CDB7DEB7C6
S11303E027970FB6F894DEBF0FBECDBFFC01209156
S11303F0780030917900932F80E0822BB09A880F97
S1130400991F945064E670E06AD42B017783668365
S113041080819181AC01662757FD6095762F440F4A
S1130420551F661F771F440F551F661F771F440F04
S1130430551F661F771F440F551F661F771F0489BA
S1130440158926893789401B510B620B730B66246F
S113045057FC6094762C440C551C661C771C440C89
S1130460551C661C771C440C551C661C771C440CDC
S1130470551C661C771C440E551E661E771E55823D
S11304804482440C551C661C771C440C551C661C89
S1130490771C440C551C661C771C843691052CF083
S11304A028EE33E040E050E004C026E232E040E0D1
S11304B050E0C301B20104D44B015C01689416F806
S11304C0B594A794979487941694D1F76B017C0103
S11304D0FF0CCC08DC2C7601282D392D4A2D5B2D00
S11304E06C2D7C2D8C2D9C2DA084B184C284D3844E
S11304F0E484F58406851785E5D4222E332E842ED4
S1130500952EA62FB72F8E839F832087318742870E
S11305105387648775878687978773016201FF0C09
S1130520CC08DC2C7601242D352D462D572D6C2D31
S11305307C2D8C2D9C2D02E098D429833A834B8307
S11305405C83462E572E682E792E752D862D972D79
S11305508CD4A22EB32EC42ED52EE62EF72E082F21
S1130560192F29813A814B815C81642D752D862D4B
S1130570972DA8D42983432E542E652E762E7A8364
S11305808B839C83452D562D672D02E06ED4A22EBD
S1130590B32EC42ED52EE62EF72E082F192F29811F
S11305A0342D452D562D672D7A818B819C818AD4DB
S11305B0A22EB32EC42ED52EE62EF72E082F192FD9
S11305C0222D332D482D592D6A2F7B2F8E819F810B
S11305D079D407E059D458D4B22EA32FC42ED52EE3
S11305E0E62EF72E082F192F2F3F3105410551050F
S11305F0610571058105910551F04CF0BB24BA9455
S1130600A0E0C12CD12CE12CF12C00E010E0BB2D9A
S1130610AA2E2B2D3A2F4C2D5D2D6E2D7F2D802F44
S1130620912FA0E058D414F4B0E0A12CB283A3829B
S1130630B7BDB8BD27960FB6F894DEBF0FBECDBFC9
S1130640DF91CF911F910F91FF90EF90DF90CF90AA
S1130650BF90AF909F908F907F906F905F904F90DE
S11306603F902F9008951F920F920FB60F9211246E
S11306702F933F934F935F938F939F93F89480911D
S1130680840090918500909325018093240120910A
S11306901C0130911D018217930748F42095309571
S11306A0280F391F309328012093270107C0AC017C
S11306B0421B530B509328014093270190931D0133
S11306C080931C0181E08093260178949F918F91FF
S11306D05F914F913F912F910F900FBE0F901F90FC
S11306E01895CF93DF9300D000D000D0CDB7DEB7FC
S11306F026E0E0E0F1E0DE01119601900D922A95EA
S1130700E1F745E050E0BC01CE01019621D4BE01E1
S11307106F5F7F4F9E012A5F3F4FE0ECF0E086EC75
S113072090E0408145FFFDCFDB014D91BD01DC012F
S11307304C93A1EEB4E01197F1F700C000006217EA
S1130740730779F726960FB6F894DEBF0FBECDBFB8
S1130750DF91CF9108951F920F920FB60F9211243B
S11307602F938F939F93AF93BF93CF93DF93EF9385
S1130770FF93F8944298419AAEE1B1E083E291E0AC
S1130780E0ECF0E0C6ECD0E020812223ECF72881F5
S11307902D93A817B907C1F74198429A81E0809335
S11307A023017894FF91EF91DF91CF91BF91AF91A5
S11307B09F918F912F910F900FBE0F901F901895BE
S11307C084B184B987B1876087B98AB182668AB9EE
S11307D083EF84BD81E085BD519A1092C50089E103
S11307E08093C40088E98093C10086E08093C200AE
S11307F082E08093680080E380936C00E1E8F0E09D
S1130800808182608083ECE7F0E080818364808370
S1130810EAE7F0E08081806A8083EBE7F0E08081A2
S113082086608083EEE7F0E08081886080830895AD
S1130830CF93DF93CDB7DEB7CC51D2400FB6F89447
S1130840DEBF0FBECDBFCE01019619DC109223018D
S113085010922601109225011092240110921D017C
S113086010921C0110922801109227018EE690E04C
S11308709A838983A5DF78940EE111E080912301A6
S1130880882399F1F801808190E0FC01F097E93028
S1130890F10540F5E65EFF4F0994CE0101966DDD4A
S11308A0F3D121C0CE01019675D11DC0CE010196B0
S11308B02CD019C0CE01019630D115C0CE010196BD
S11308C086D011C0CE01019655D00DC0CE0101963F
S11308D0A2D109C0CE010196AFD005C0CE010196C8
S11308E0E1D001C0D1D11092230180912601882347
S11308F029F2CE010196F6DBCE010196BDDCCE01D4
S113090001965ADD10922601B9CF0F931F93CF930E
S1130910DF9300D000D000D0CDB7DEB725E0E6E00D
S1130920F1E08E010F5F1F4FD80101900D922A95BF
S1130930E1F7FC0127812F9386818F938CE091E06E
S11309409F938F931F9286E08F931F930F9317D3D8
S1130950C801C7DE0FB6F894DEBF0FBECDBF269622
S11309600FB6F894DEBF0FBECDBFDF91CF911F91BC
S11309700F9108950F931F93CF93DF9300D000D06E
S113098000D0CDB7DEB7FC0121812F9380818F93F6
S11309908CE091E09F938F931F9286E08F938E015A
S11309A00F5F1F4F1F930F93EAD2C8019ADE0FB651
S11309B0F894DEBF0FBECDBF26960FB6F894DEBF07
S11309C00FBECDBFDF91CF911F910F9108950F936B
S11309D01F93CF93DF9300D000D000D0CDB7DEB704
S11309E025E0E6E0F1E08E010F5F1F4FD801019092
S11309F00D922A95E1F7FC0123812F9382818F9335
S1130A0080E191E09F938F931F9286E08F931F93D1
S1130A100F93B5D2C80165DE0FB6F894DEBF0FBEE2
S1130A20CDBF26960FB6F894DEBF0FBECDBFDF91C3
S1130A30CF911F910F9108950F931F93CF93DF933D
S1130A4000D000D000D0CDB7DEB785E0E6E0F1E01D
S1130A508E010F5F1F4FD80101900D928A95E1F727
S1130A60809128018F93809127018F9383E191E0F6
S1130A709F938F931F9286E08F931F930F937FD240
S1130A80C8012FDE0FB6F894DEBF0FBECDBF269689
S1130A900FB6F894DEBF0FBECDBFDF91CF911F918B
S1130AA00F9108950F931F93CF93DF9300D000D03D
S1130AB000D0CDB7DEB725E0E6E0F1E08E010F5FB0
S1130AC01F4FD80101900D922A95E1F7FC01E85ED1
S1130AD0FD4F83818F9382818F9381818F93808156
S1130AE08F9387E191E09F938F931F9286E08F937A
S1130AF01F930F9344D2C801F4DD0FB6F894DEBF00
S1130B000FBECDBF26960FB6F894DEBF0FBECDBF85
S1130B10DF91CF911F910F9108950F931F93CF935E
S1130B20DF9300D000D000D0CDB7DEB725E0E6E0FB
S1130B30F1E08E010F5F1F4FD80101900D922A95AD
S1130B40E1F7FC0184819581959587959595879525
S1130B5095958795959587959F938F938CE091E0D4
S1130B609F938F931F9286E08F931F930F9307D2C7
S1130B70C801B7DD0FB6F894DEBF0FBECDBF269611
S1130B800FB6F894DEBF0FBECDBFDF91CF911F919A
S1130B900F9108950F931F93CF93DF9300D000D04C
S1130BA000D0CDB7DEB725E0E6E0F1E08E010F5FBF
S1130BB01F4FD80101900D922A95E1F7FC01448959
S1130BC0558966897789689413F87695679557955A
S1130BD047951694D1F77F936F935F934F9387E173
S1130BE091E09F938F931F9286E08F931F930F93AF
S1130BF0C6D1C80176DD0FB6F894DEBF0FBECDBFF7
S1130C0026960FB6F894DEBF0FBECDBFDF91CF910D
S1130C101F910F9108950F931F93CF93DF9300D0EB
S1130C2000D000D0CDB7DEB725E0E6E0F1E08E01DC
S1130C300F5F1F4FD80101900D922A95E1F7FC0137
S1130C4023892F9322892F9321892F9380898F932E
S1130C5087E191E09F938F931F9286E08F931F9378
S1130C600F938DD1C8013DDD0FB6F894DEBF0FBEE2
S1130C70CDBF26960FB6F894DEBF0FBECDBFDF9171
S1130C80CF911F910F910895CF93DF9300D000D09F
S1130C9000D0CDB7DEB785E0E6E0F1E0DE011196E5
S1130CA001900D928A95E1F7CE0101961ADD269600
S1130CB00FB6F894DEBF0FBECDBFDF91CF9108957C
S1130CC0DB018F939F932AD0BF91AF91A29F800D98
S1130CD0911DA39F900DB29F900D1124089597FB31
S1130CE0072E16F4009406D077FD08D000D107FC37
S1130CF005D03EF4909581959F4F08957095619528
S1130D007F4F0895A29FB001B39FC001A39F01D05C
S1130D10B29F700D811D1124911D0895F3DFA59FCD
S1130D20900DB49F900DA49F800D911D11240895E2
S1130D30689401C0E8948F929F92CF93DF9356D02A
S1130D40DF91CF919F908F900895DF93CF931F935E
S1130D500F939A9DF02D219FF00D8B9DF00D8A9D90
S1130D60E02DF10D039FF00D029FE00DF11D4E9D4E
S1130D70E00DF11D5E9DF00D4F9DF00D7F936F937F
S1130D80BF92AF925F934F93D501BCDF8B01AC014F
S1130D90D701B8DFEB01E80FF91FD6011FD02F915F
S1130DA03F91D601AFDFC60FD71FE81FF91FAF91E0
S1130DB0BF9114D02F913F91A5DFC60FD71FE81F15
S1130DC0F91FD6019FDFE60FF71F9801BE01CF017F
S1130DD011240F911F91CF91DF91089593DF460F56
S1130DE0571FC81FD91F08F43196089588249924E1
S1130DF0F401E401B0E41B2ED4019D158E049F047C
S1130E00E007F10738F4FC014B01CA01B901AD0157
S1130E109E011694220F331F441F551F661F771F10
S1130E20881F991F881C991CEE1FFF1FCC1FDD1FF4
S1130E30AA1FBB1F8A149B04EC05FD05CE05DF0524
S1130E40A007B10748F08A189B08EC09FD09CE09F0
S1130E50DF09A00BB10B21601A94E1F62EF4940182
S1130E60AF01BE01CD01000C08950F930F7351F033
S1130E70220F331F441F551F661F771F881F991F9A
S1130E800A95B1F70F9108950F930F7351F095954B
S1130E9087957795679557954795379527950A953B
S1130EA0B1F70F9108950F930F7351F096958795AD
S1130EB07795679557954795379527950A95B1F78F
S1130EC00F9108952A0D3B1D4C1D5D1D6E1D7F1D48
S1130ED0801F911F08950024A7FD00942A17300550
S1130EE04005500560057005800590050895AA1B0E
S1130EF0BB1B51E107C0AA1FBB1FA617B70710F001
S1130F00A61BB70B881F991F5A95A9F78095909532
S1130F10BC01CD010895FC0188279927E89421910B
S1130F202032E9F3293010F02E30C8F32B3239F097
S1130F302D3231F4689403C01AD0820F911D21918F
S1130F4020532A30C8F31EF4909581959F4F08953D
S1130F50FB01DC014150504048F001900D9200200B
S1130F60C9F701C01D9241505040E0F708957AE05E
S1130F70979F902D879F802D910D11240895AEE0A9
S1130F80B0E0E4ECF7E0A3C20D891E898F89988D47
S1130F9026E02C831A83098397FF02C080E090E83F
S1130FA001979E838D83CE014B96AC01698D7A8D1A
S1130FB0CE01019611D04D815E8157FD0AC02F816B
S1130FC03885421753070CF49A01F801E20FF31F16
S1130FD010822E96E4E097C2ACE0B0E0E1EFF7E0D7
S1130FE068C27C016B018A01FC011782168283812D
S1130FF081FFB9C188248394912C8C0E9D1EF70126
S11310009381F60193FD859193FF81916F0188236C
S113101009F4A5C1853239F493FD859193FF81913B
S11310206F01853221F4B70190E0B9D1E8CF512C9A
S1131030312C20E02032A8F48B3261F028F4803285
S113104051F0833271F40BC08D3239F0803349F49E
S1131050216028C02260246025C0286023C020614C
S113106021C027FD27C0382F30533A3078F426FFAB
S113107006C0FAE05F9E300D1124532E13C08AE09F
S1131080389E300D1124332E20620CC08E3221F490
S113109026FD65C1206406C08C3611F4206802C0A8
S11310A0883641F4F60193FD859193FF81916F0198
S11310B08111C0CF982F9554933018F090529330EB
S11310C028F40C5F1F4FFFE3F9830DC0833631F022
S11310D0833771F0833509F05AC022C0F80180814A
S11310E089830E5F1F4F44244394512C540114C030
S11310F03801F2E06F0E711CF801A080B18026FF68
S113110003C0652D70E002C06FEF7FEFC5012C872F
S11311103BD12C0183012C856FE7262E222217C098
S11311203801F2E06F0E711CF801A080B18026FF37
S113113003C0652D70E002C06FEF7FEFC5012C87FF
S113114018D12C012C8550E8252E222A830123FC5A
S11311501AC005C0B70180E290E021D13A94832DF2
S113116090E048165906B0F30EC0F50127FC8591AE
S113117027FE81915F01B70190E011D131103A94BB
S1131180F1E04F1A51084114510479F7E5C084364F
S113119011F0893639F5F80127FF07C060817181A4
S11311A0828193810C5F1F4F08C060817181882701
S11311B077FD8095982F0E5F1F4F4FE6B42EB22215
S11311C097FF09C090958095709561957F4F8F4FDB
S11311D09F4FF0E8BF2A2AE030E0A4010CD1A82EEA
S11311E0A81842C0853731F43FEEB32EB2222AE06C
S11311F030E024C099EFB92EB2228F36B9F020F432
S1131200883509F0ACC00DC0803721F0883709F06B
S1131210A6C002C020E1B22AB4FE0BC084E0B82A02
S113122008C024FF09C0E6E0BE2A06C028E030E07A
S113123005C020E130E002C020E132E0F801B7FE51
S113124007C060817181828193810C5F1F4F06C04A
S11312506081718180E090E00E5F1F4FA401CBD0CC
S1131260A82EA818FFE7BF22B6FE0BC02B2D2E7F99
S1131270A51450F4B4FE0AC0B2FC08C02B2D2E7E77
S113128005C07A2C2B2D03C07A2C01C0752C24FFA9
S11312900DC0FE01EA0DF11D8081803311F4297E19
S11312A009C022FF06C07394739404C0822F867809
S11312B009F0739423FD13C020FF0EC05A2C73143D
S11312C058F4530C5718732C07C0B70180E290E010
S11312D02C8765D073942C857314B8F304C07314ED
S11312E010F4371801C0312C24FF11C0B70180E37A
S11312F090E02C8754D02C8522FF1CC021FF03C012
S113130088E590E002C088E790E0B7010CC0822F26
S1131310867881F021FD02C080E201C08BE227FDC6
S11313208DE2B70190E03BD005C0B70180E390E0C7
S113133036D05A94A514C8F3AA94F401EA0DF11D09
S1131340B701808190E02BD0A110F6CF05C0B70182
S113135080E290E024D03A943110F9CF50CEF701D6
S11313602681378102C02FEF3FEFC9012C96E2E1BD
S1131370BCC0FC010590615070400110D8F7809505
S113138090958E0F9F1F0895FC016150704001904D
S11313900110D8F7809590958E0F9F1F08950F9395
S11313A01F93CF93DF938C01EB018B8181FD03C0ED
S11313B00FEF1FEF1AC082FF0DC02E813F818C8179
S11313C09D812817390764F4E881F9810193F98331
S11313D0E88306C0E885F985802F0995892B41F7B4
S11313E08E819F8101969F838E83C801DF91CF9167
S11313F01F910F910895FA01AA27283051F1203145
S113140081F1E8946F936E7F6E5F7F4F8F4F9F4F94
S1131410AF4FB1E03ED0B4E03CD0670F781F891FD6
S11314209A1FA11D680F791F8A1F911DA11D6A0FA4
S1131430711D811D911DA11D20D009F468943F9157
S11314402AE0269F11243019305D3193DEF6CF0156
S11314500895462F4770405D4193B3E00FD0C9F71C
S1131460F6CF462F4F70405D4A3318F0495D31FD89
S11314704052419302D0A9F7EACFB4E0A6959795DC
S1131480879577956795BA95C9F7009761057105B2
S113149008959B01AC010A2E0694579547953795FC
S11314A02795BA95C9F7620F731F841F951FA01D56
S11314B008952F923F924F925F926F927F928F92F4
S11314C09F92AF92BF92CF92DF92EF92FF920F93CF
S11314D01F93CF93DF93CDB7DEB7CA1BDB0B0FB6D9
S11314E0F894DEBF0FBECDBF09942A883988488896
S11314F05F846E847D848C849B84AA84B984C8842C
S1131500DF80EE80FD800C811B81AA81B981CE0F22
S1131510D11D0FB6F894DEBF0FBECDBFED01089507
S1071520F894FFCF69
S11315242525252525002020202020002568640069
S10F153425640025687500256C75000016
S9030000FC
