:1000000023C03DC03CC03BC09CC239C038C037C0D3
:1000100036C035C034C033C032C031C030C02FC04C
:100020002EC02DC006C32BC02AC029C028C027C09F
:1000300026C025C08CC38FC392C395C398C39BC3EE
:100040009EC3A1C3A4C3A7C311241FBECFEFD4E096
:10005000DEBFCDBF11E0A0E0B1E0E6E2F4E102C016
:1000600005900D92A232B107D9F721E0A2E2B1E0EA
:1000700001C01D92AF32B207E1F734D3D2C9C0CF6D
:10008000DC0111961C921E9213961C921E921297DE
:1000900014961D921D921D921C92179718961D92F0
:1000A0001D921D921C921B97FC01E457FF4F10827A
:1000B000118212821382FC01E057FF4F10821182DD
:1000C000128213821482158216821782A856BF4F9D
:1000D0001D921C9208958130910539F4E1E8F0E019
:1000E0008081108281E080830895089731F4E1E8EF
:1000F000F0E08081108282E0808308954F925F92C9
:100100006F927F928F929F92AF92BF92CF92DF9227
:10011000EF92FF920F931F93CF93DF93CDB7DEB78C
:1001200028970FB6F894DEBF0FBECDBF4C01E0900C
:100130002D01F0902E01FC0180819181459734F4CE
:1001400088E090E0C8DF28E030E005C081E090E082
:10015000C2DF21E030E0D7016AD52B013C01440C1D
:10016000551C661C771C440C551C661C771C440CE3
:10017000551C661C771C440C551C661C771CA3017F
:10018000920160E070E0CB0149823A834B835C834B
:100190006D837E838F839887A12C0F2EF6E0BF2E70
:1001A000F02DC12CD12CE12CF12C00E010E060E00E
:1001B00070E080E090E05ED504E00AD6A22EB32E77
:1001C000C42ED52EE62EF72EE82F192F01E000D6EB
:1001D00049575C466C4F7F4F8F4F9F4FD401A057BC
:1001E000BF4F689413F87694679457944794169485
:1001F000D1F74D925D926D927C9213970E2F2FD571
:10020000822F932FA42FB52F722F632F542F4B2F94
:10021000689413F8B695A795979587951694D1F796
:10022000F40180879187A287B387893C9105A10556
:10023000B105B8F4E457FF4F2FE130E02150310908
:10024000B291A2919291829184839583A683B78380
:100250002F3F8FEF380791F7F401708B618B528B32
:10026000438B28960FB6F894DEBF0FBECDBFDF914B
:10027000CF911F910F91FF90EF90DF90CF90BF90A3
:10028000AF909F908F907F906F905F904F90089568
:100290002F923F924F925F926F927F928F929F9296
:1002A000AF92BF92CF92DF92EF92FF920F931F9384
:1002B000CF93DF93EC01DC015096E0E2F0E020E028
:1002C00030E040E050E060E070E080E090E0CD9011
:1002D000DD90ED90FD9016012701AC2CB32CC42CC1
:1002E000D52CE12CF12C00E010E081D5319779F785
:1002F00005E06ED504E06CD52C873D874E875F877F
:10030000DF91CF911F910F91FF90EF90DF90CF90F1
:10031000BF90AF909F908F907F906F905F904F9025
:100320003F902F9008952F923F924F925F926F923D
:100330007F928F929F92AF92BF92CF92DF92EF9275
:10034000FF920F931F93CF93DF93FC0180819181E4
:100350002C01662457FC6094762C4485558566856F
:100360007785441A550A660A770ADF01A456BF4FFB
:100370004D925C92440C551C661C771C440C551C19
:10038000661C771C440C551C661C771C440C551CC1
:10039000661C771C440C551C661C771C440C551CB1
:1003A000661C771C440C551C661C771C8035910517
:1003B0003CF4889754F028E730E040E050E009C072
:1003C0002AEA30E040E050E004C02CE330E040E0B6
:1003D00050E0C301B2011CD4DF01AC56BF4F4B014A
:1003E0005C01689416F8B594A79497948794169432
:1003F000D1F76B017C01FF0CCC08DC2C7601282D99
:10040000392D4A2D5B2D6C2D7C2D8C2D9C2DAC9087
:100410001196BC9011971296CC9012971396DC907F
:1004200013971496EC9014971596FC9015971696C2
:100430000C91169717961C911797D9D4A22EB32E0C
:10044000242E352ED62F872E982EC92F2C93119619
:100450003C93119712964C93129713965C931397B3
:1004600014966C93149715967C93159716968C9307
:10047000169717969C9373016201FF0CCC08DC2C35
:100480007601242D352D462D572D6C2D7C2D8C2D50
:100490009C2D08E07FD4B22FA32FC42ED52EE62E9C
:1004A000F72E082F192F2A2D3B2D422D532D6D2F5E
:1004B000782D892D9C2FAB2EBA2E99D407E079D4B4
:1004C00078D4C22FA32FA42EB52EC62ED72EE82E59
:1004D000F92E2F3F31054105510561057105810553
:1004E000910549F044F0CFEFA0E0A12CB12CC12C34
:1004F000D12CE12CF12CBC2FDA2F2C2F3A2F4A2DA6
:100500005B2D6C2D7D2D8E2D9F2DA0E079D414F4C4
:10051000B0E0D0E0B283D383B7BDB8BDDF91CF9157
:100520001F910F91FF90EF90DF90CF90BF90AF9011
:100530009F908F907F906F905F904F903F902F9003
:1005400008951F920F920FB60F9211242F933F938D
:100550004F935F938F939F93F89480918400909131
:10056000850090932B0180932A01209122013091E4
:1005700023018217930748F420953095280F391FDF
:1005800030932E0120932D0107C0AC01421B530B69
:1005900050932E0140932D019093230180932201CB
:1005A00081E080932C0178949F918F915F914F917E
:1005B0003F912F910F900FBE0F901F901895CF93E2
:1005C000DF9300D000D000D0CDB7DEB726E0E0E06A
:1005D000F1E0DE01119601900D922A95E1F745E0D8
:1005E00050E0BC01CE01019634D4BE016F5F7F4F55
:1005F0009E012A5F3F4FE0ECF0E086EC90E0408106
:1006000045FFFDCFDB014D91BD01DC014C93A1EE17
:10061000B4E01197F1F700C000006217730779F793
:1006200026960FB6F894DEBF0FBECDBFDF91CF91F7
:1006300008951F920F920FB60F9211242F938F934C
:100640009F93AF93BF93CF93DF93EF93FF93F89470
:100650004298419AA4E2B1E089E291E0E0ECF0E056
:10066000C6ECD0E020812223ECF728812D93A81737
:10067000B907C1F74198429A81E0809329017894A3
:10068000FF91EF91DF91CF91BF91AF919F918F91AA
:100690002F910F900FBE0F901F90189584B184B9C1
:1006A00087B1876087B98AB182668AB983EF84BDD2
:1006B00081E085BD519A1092C50089E18093C40004
:1006C00088E98093C10086E08093C20082E0809335
:1006D000680080E380936C00E1E8F0E08081826054
:1006E00080830895CF93DF93CDB7DEB7CE59D1097C
:1006F0000FB6F894DEBF0FBECDBFCE010196C0DCB1
:100700001092290110922C0110922B0110922A01B3
:10071000109223011092220110922E0110922D01AD
:100720008EE190E09A838983B9DF789404E211E046
:10073000809129018823B1F1F801808190E0FC01CA
:10074000F097EA30F10558F5E65EFF4F0994CE01C7
:10075000019638D025C0CE0101964ED021C0CE01E1
:1007600001968DD01DC0CE010196BAD019C0CE0120
:100770000196E3D015C0CE01019614D111C0CE016F
:10078000019646D10DC0CE0101967DD109C0CE01A2
:100790000196B0D105C0CE010196E5D101C01CD2B1
:1007A0001092290180912C01882341F0CE010196FD
:1007B000A5DCCE0101966CDD10922C01CE010196D4
:1007C000B2DDB6CFCF93DF9300D000D000D0CDB74D
:1007D000DEB745E050E066E071E0CE01019639D326
:1007E000CE010196ECDE26960FB6F894DEBF0FBE62
:1007F000CDBFDF91CF9108950F931F93CF93DF93D8
:1008000000D000D000D0CDB7DEB725E0E8E0F1E0C1
:100810008E010F5F1F4FD80101900D922A95E1F7CD
:10082000FC01EC56FF4F87818F9386818F938581E2
:100830008F9384818F9383818F9382818F93818122
:100840008F9380818F938EE091E09F938F931F927F
:1008500086E08F931F930F9313D3C801B0DE0FB6BA
:10086000F894DEBF0FBECDBF26960FB6F894DEBF5C
:100870000FBECDBFDF91CF911F910F9108950F93C0
:100880001F93CF93DF93CDB7DEB72A970FB6F894B7
:10089000DEBF0FBECDBF8C0185E0E8E0F1E0DE01F8
:1008A000119601900D928A95E1F743E050E065E2E0
:1008B00071E0CE010796CDD2CE010796ADD2F801F8
:1008C00091838083CE0101967ADE2A960FB6F89442
:1008D000DEBF0FBECDBFDF91CF911F910F91089565
:1008E0000F931F93CF93DF9300D000D000D0CDB7EC
:1008F000DEB7FC0121812F9380818F9383E191E00A
:100900009F938F931F9286E08F938E010F5F1F4FEF
:100910001F930F93B5D2C80152DE0FB6F894DEBF15
:100920000FBECDBF26960FB6F894DEBF0FBECDBF6B
:10093000DF91CF911F910F9108950F931F93CF9344
:10094000DF9300D000D000D0CDB7DEB725E0E8E0DF
:10095000F1E08E010F5F1F4FD80101900D922A9593
:10096000E1F7FC0123812F9382818F9387E191E04E
:100970009F938F931F9286E08F931F930F9380D244
:10098000C8011DDE0FB6F894DEBF0FBECDBF2696A0
:100990000FB6F894DEBF0FBECDBFDF91CF911F9190
:1009A0000F9108950F931F93CF93DF9300D000D042
:1009B00000D0CDB7DEB785E0E8E0F1E08E010F5F53
:1009C0001F4FD80101900D928A95E1F780912E0179
:1009D0008F9380912D018F938AE191E09F938F9364
:1009E0001F9286E08F931F930F934AD2C801E7DDD1
:1009F0000FB6F894DEBF0FBECDBF26960FB6F894A3
:100A0000DEBF0FBECDBFDF91CF911F910F91089533
:100A10000F931F93CF93DF9300D000D000D0CDB7BA
:100A2000DEB725E0E8E0F1E08E010F5F1F4FD8014F
:100A300001900D922A95E1F7FC01E057FF4F838169
:100A40008F9382818F9381818F9380818F938EE1A9
:100A500091E09F938F931F9286E08F931F930F9344
:100A60000FD2C801ACDD0FB6F894DEBF0FBECDBF0C
:100A700026960FB6F894DEBF0FBECDBFDF91CF91A3
:100A80001F910F9108950F931F93CF93DF9300D081
:100A900000D000D0CDB7DEB725E0E8E0F1E08E0170
:100AA0000F5F1F4FD80101900D922A95E1F7FC01CD
:100AB000E456FF4F81818F9380818F9383E191E092
:100AC0009F938F931F9286E08F931F930F93D8D19C
:100AD000C80175DD0FB6F894DEBF0FBECDBF2696F8
:100AE0000FB6F894DEBF0FBECDBFDF91CF911F913F
:100AF0000F9108950F931F93CF93DF9300D000D0F1
:100B000000D0CDB7DEB725E0E8E0F1E08E010F5F61
:100B10001F4FD80101900D922A95E1F7FC0127851E
:100B20002F9326852F9325852F9384858F938EE190
:100B300091E09F938F931F9286E08F931F930F9363
:100B40009FD1C8013CDD0FB6F894DEBF0FBECDBF0C
:100B500026960FB6F894DEBF0FBECDBFDF91CF91C2
:100B60001F910F9108950F931F93CF93DF9300D0A0
:100B700000D000D0CDB7DEB725E0E8E0F1E08E018F
:100B80000F5F1F4FD80101900D922A95E1F7FC01EC
:100B900023852F9322852F9321852F9380858F93F3
:100BA0008EE191E09F938F931F9286E08F931F9326
:100BB0000F9366D1C80103DD0FB6F894DEBF0FBEF8
:100BC000CDBF26960FB6F894DEBF0FBECDBFDF9126
:100BD000CF911F910F910895CF93DF9300D000D054
:100BE00000D0CDB7DEB785E0E8E0F1E0DE01119698
:100BF00001900D928A95E1F7CE010196E0DC2696F0
:100C00000FB6F894DEBF0FBECDBFDF91CF91089530
:100C1000DB018F939F9317D0BF91AF91A29F800D5F
:100C2000911DA39F900DB29F900D11240895A29F36
:100C3000B001B39FC001A39F01D0B29F700D811D71
:100C40001124911D0895F3DFA59F900DB49F900D81
:100C5000A49F800D911D11240895689401C0E8940B
:100C60008F929F92CF93DF9356D0DF91CF919F9039
:100C70008F900895DF93CF931F930F939A9DF02D3C
:100C8000219FF00D8B9DF00D8A9DE02DF10D039FAE
:100C9000F00D029FE00DF11D4E9DE00DF11D5E9DDA
:100CA000F00D4F9DF00D7F936F93BF92AF925F93C6
:100CB0004F93D501BCDF8B01AC01D701B8DFEB014D
:100CC000E80FF91FD6011FD02F913F91D601AFDF5A
:100CD000C60FD71FE81FF91FAF91BF9114D02F91F6
:100CE0003F91A5DFC60FD71FE81FF91FD6019FDF71
:100CF000E60FF71F9801BE01CF0111240F911F913C
:100D0000CF91DF91089593DF460F571FC81FD91F5A
:100D100008F43196089588249924F401E401B0E49C
:100D20001B2ED4019D158E049F04E007F10738F4B3
:100D3000FC014B01CA01B901AD019E011694220FBD
:100D4000331F441F551F661F771F881F991F881C5C
:100D5000991CEE1FFF1FCC1FDD1FAA1FBB1F8A148B
:100D60009B04EC05FD05CE05DF05A007B10748F0A3
:100D70008A189B08EC09FD09CE09DF09A00BB10B0D
:100D800021601A94E1F62EF49401AF01BE01CD0169
:100D9000000C08950F930F7351F0220F331F441F5F
:100DA000551F661F771F881F991F0A95B1F70F916E
:100DB00008950F930F7351F09595879577956795E3
:100DC00057954795379527950A95B1F70F9108954F
:100DD0000F930F7351F09695879577956795579573
:100DE0004795379527950A95B1F70F9108952A0DE4
:100DF0003B1D4C1D5D1D6E1D7F1D801F911F0895A5
:100E00000024A7FD00942A17300540055005600511
:100E10007005800590050895FC0188279927E894BE
:100E200021912032E9F3293010F02E30C8F32B3213
:100E300039F02D3231F4689403C01AD0820F911D1D
:100E4000219120532A30C8F31EF4909581959F4F2D
:100E50000895FB01DC014150504048F001900D9293
:100E60000020C9F701C01D9241505040E0F708959D
:100E70007AE0979F902D879F802D910D11240895E2
:100E8000AEE0B0E0E5E4F7E0A3C20D891E898F89EA
:100E9000988D26E02C831A83098397FF02C080E097
:100EA00090E801979E838D83CE014B96AC01698DAE
:100EB0007A8DCE01019611D04D815E8157FD0AC019
:100EC0002F813885421753070CF49A01F801E20F7D
:100ED000F31F10822E96E4E097C2ACE0B0E0E2E7A8
:100EE000F7E068C27C016B018A01FC01178216825F
:100EF000838181FFB9C188248394912C8C0E9D1E1F
:100F0000F7019381F60193FD859193FF81916F0124
:100F1000882309F4A5C1853239F493FD859193FFA7
:100F200081916F01853221F4B70190E0B9D1E8CF0A
:100F3000512C312C20E02032A8F48B3261F028F4BF
:100F4000803251F0833271F40BC08D3239F080332E
:100F500049F4216028C02260246025C0286023C095
:100F6000206121C027FD27C0382F30533A3078F454
:100F700026FF06C0FAE05F9E300D1124532E13C0E9
:100F80008AE0389E300D1124332E20620CC08E3240
:100F900021F426FD65C1206406C08C3611F420685A
:100FA00002C0883641F4F60193FD859193FF81914B
:100FB0006F018111C0CF982F9554933018F0905243
:100FC000933028F40C5F1F4FFFE3F9830DC0833685
:100FD00031F0833771F0833509F05AC022C0F8012F
:100FE000808189830E5F1F4F44244394512C540108
:100FF00014C03801F2E06F0E711CF801A080B180BE
:1010000026FF03C0652D70E002C06FEF7FEFC501C2
:101010002C873BD12C0183012C856FE7262E2222C1
:1010200017C03801F2E06F0E711CF801A080B1808A
:1010300026FF03C0652D70E002C06FEF7FEFC50192
:101040002C8718D12C012C8550E8252E222A8301CB
:1010500023FC1AC005C0B70180E290E021D13A9488
:10106000832D90E048165906B0F30EC0F50127FC19
:10107000859127FE81915F01B70190E011D1311078
:101080003A94F1E04F1A51084114510479F7E5C040
:10109000843611F0893639F5F80127FF07C06081E1
:1010A0007181828193810C5F1F4F08C060817181C3
:1010B000882777FD8095982F0E5F1F4F4FE6B42E3F
:1010C000B22297FF09C090958095709561957F4FEA
:1010D0008F4F9F4FF0E8BF2A2AE030E0A4010CD1E7
:1010E000A82EA81842C0853731F43FEEB32EB222A5
:1010F0002AE030E024C099EFB92EB2228F36B9F041
:1011000020F4883509F0ACC00DC0803721F0883755
:1011100009F0A6C002C020E1B22AB4FE0BC084E0F0
:10112000B82A08C024FF09C0E6E0BE2A06C028E0AD
:1011300030E005C020E130E002C020E132E0F801FB
:10114000B7FE07C060817181828193810C5F1F4F60
:1011500006C06081718180E090E00E5F1F4FA401A6
:10116000CBD0A82EA818FFE7BF22B6FE0BC02B2DB0
:101170002E7FA51450F4B4FE0AC0B2FC08C02B2D7B
:101180002E7E05C07A2C2B2D03C07A2C01C0752C25
:1011900024FF0DC0FE01EA0DF11D8081803311F4A2
:1011A000297E09C022FF06C07394739404C0822F65
:1011B000867809F0739423FD13C020FF0EC05A2CCB
:1011C000731458F4530C5718732C07C0B70180E2FE
:1011D00090E02C8765D073942C857314B8F304C009
:1011E000731410F4371801C0312C24FF11C0B7015B
:1011F00080E390E02C8754D02C8522FF1CC021FF77
:1012000003C088E590E002C088E790E0B7010CC019
:10121000822F867881F021FD02C080E201C08BE23E
:1012200027FD8DE2B70190E03BD005C0B70180E318
:1012300090E036D05A94A514C8F3AA94F401EA0DAC
:10124000F11DB701808190E02BD0A110F6CF05C031
:10125000B70180E290E024D03A943110F9CF50CE1B
:10126000F7012681378102C02FEF3FEFC9012C968D
:10127000E2E1BCC0FC010590615070400110D8F75C
:10128000809590958E0F9F1F0895FC0161507040CE
:1012900001900110D8F7809590958E0F9F1F0895AB
:1012A0000F931F93CF93DF938C01EB018B8181FD13
:1012B00003C00FEF1FEF1AC082FF0DC02E813F81C8
:1012C0008C819D812817390764F4E881F9810193A5
:1012D000F983E88306C0E885F985802F0995892B75
:1012E00041F78E819F8101969F838E83C801DF9194
:1012F000CF911F910F910895FA01AA27283051F13B
:10130000203181F1E8946F936E7F6E5F7F4F8F4F36
:101310009F4FAF4FB1E03ED0B4E03CD0670F781F95
:10132000891F9A1FA11D680F791F8A1F911DA11D7A
:101330006A0F711D811D911DA11D20D009F46894B3
:101340003F912AE0269F11243019305D3193DEF65B
:10135000CF010895462F4770405D4193B3E00FD011
:10136000C9F7F6CF462F4F70405D4A3318F0495DFC
:1013700031FD4052419302D0A9F7EACFB4E0A695DF
:101380009795879577956795BA95C9F70097610501
:10139000710508959B01AC010A2E06945795479557
:1013A00037952795BA95C9F7620F731F841F951F4C
:1013B000A01D08952F923F924F925F926F927F925D
:1013C0008F929F92AF92BF92CF92DF92EF92FF9255
:1013D0000F931F93CF93DF93CDB7DEB7CA1BDB0B01
:1013E0000FB6F894DEBF0FBECDBF09942A883988A6
:1013F00048885F846E847D848C849B84AA84B984AD
:10140000C884DF80EE80FD800C811B81AA81B981B8
:10141000CE0FD11D0FB6F894DEBF0FBECDBFED01CC
:061420000895F894FFCFCF
:101426002525252525000A00202020202000256CC2
:101436006C64002568640025640025687500256CC9
:0214460075002F
:00000001FF
