:1000000023C03DC03CC03BC0B2C039C038C037C0BF
:1000100036C035C034C033C032C031C030C02FC04C
:100020002EC02DC015C12BC02AC029C028C027C092
:1000300026C025C0A9C1AAC1ABC1AEC1B1C1B2C160
:10004000B3C1B4C1B5C1B6C111241FBECFEFD4E056
:10005000DEBFCDBF11E0A0E0B1E0E8E9FDE002C005
:1000600005900D92A630B107D9F721E0A6E0B1E0E6
:1000700001C01D92AD3AB207E1F743D18BC6C0CFA4
:10008000AF92BF92CF92DF92EF92FF920F931F93A6
:10009000CF93DF938091A1019091A2019C01220F47
:1000A000331F220F331F220F331F3093A6012093DB
:1000B000A501982F88279093A4018093A301A12CD8
:1000C0000F2EFCE0BF2EF02DC12CD12CE12CF12CF9
:1000D00000E010E0282F392F40E050E060E070E0B1
:1000E00080E090E0ADD205E03BD3D22FC32FC42EE9
:1000F000D52EE62EF72EE82F192F01E031D3445EDE
:100100005D4F6F4F7F4F8F4F9F4FAD2EBC2E0E2FE9
:100110008CD2822F932F322F292F969587959295E7
:1001200082958F7089279F7089279093AA01809369
:10013000A901E3E9F1E043E151E0929182919383D7
:100140008283E417F507C9F7309315012093160150
:10015000D0939D01C0939E01DF91CF911F910F918C
:10016000FF90EF90DF90CF90BF90AF9008951F92D7
:100170000F920FB60F9211248F939F93F894809152
:1001800084009091850090939C0180939B0181E075
:100190008093060178949F918F910F900FBE0F90DE
:1001A0001F9018950F931F93CF93DF9300D000D02B
:1001B00000D0CDB7DEB7E82FF92FDF010D9000207A
:1001C000E9F711978D010E1B1F0BA801682F792FDE
:1001D000CE010196E0D20630110524F5C801019642
:1001E00020E230E0E1E0F0E0EC0FFD1FE00FF11F56
:1001F000318320838C0101968730910599F712C0D5
:10020000408145FFFDCFDB014D91BD01DC014C93E9
:10021000A1EEB4E01197F1F700C000006217730778
:1002200079F70BC0BE016F5F7F4F9E012A5F3F4F82
:10023000E0ECF0E086EC90E0E3CF26960FB6F89481
:10024000DEBF0FBECDBFDF91CF911F910F910895FB
:100250001F920F920FB60F9211242F938F939F939B
:10026000AF93BF93CF93DF93EF93FF93F8944298AC
:10027000419AA5E9B1E08AE991E0E0ECF0E0C6EC52
:10028000D0E020812223ECF728812D93A817B9070D
:10029000C1F74198429A81E080939A017894FF9146
:1002A000EF91DF91CF91BF91AF919F918F912F915E
:1002B0000F900FBE0F901F90189584B184B987B12D
:1002C000876087B98AB182668AB983EF84BD81E08D
:1002D00085BD519A1092C50089E18093C40088E9D8
:1002E0008093C10086E08093C20082E08093680022
:1002F00080E380936C00E1E8F0E08081826080839D
:100300000895CF93DF9300D0CDB7DEB71092A00150
:1003100010929F0182E390E09093A8018093A7013F
:100320009A83898310920C0110920B0110929A010A
:100330001092AC011092AB0110920A0110920901C7
:1003400010929C0110929B011092080110920701DB
:1003500081E08093060180E197E29093A20180936F
:10036000A101ABDF789405E911E080919A0188231F
:1003700021F1F801808190E0FC01F097EA30F1056D
:10038000D0F4E65EFF4F099420D015C01FD013C0F3
:10039000CE0101961CD00FC0CE0101962BD00BC010
:1003A00054D009C077D007C0A3D005C0C6D003C0C1
:1003B000E9D001C013D110929A01809106018823DF
:1003C000A1F25EDE10920601D0CF08950895CF937A
:1003D000DF9300D000D000D0CDB7DEB7CE010196BC
:1003E000E1DE26960FB6F894DEBF0FBECDBFDF91DB
:1003F000CF9108950F931F93CF93DF9300D000D038
:1004000000D0CDB7DEB7FC0121812F9380818F937F
:1004100080E091E09F938F938E010F5F1F4F1F939A
:100420000F93F5D1C801BEDE0F900F900F900F9083
:100430000F900F9026960FB6F894DEBF0FBECDBF7B
:10044000DF91CF911F910F910895CF93DF9300D04B
:1004500000D000D0CDB7DEB780910C018F93809192
:100460000B018F9380E091E09F938F93CE010196D3
:100470009F938F93CCD10F900F900F900F900F9070
:100480000F9026960FB6F894DEBF0FBECDBFDF915A
:10049000CF9108950F931F93CF93DF9300D000D097
:1004A00000D0CDB7DEB78091A2018F938091A101DA
:1004B0008F9383E091E09F938F931F9286E08F93B9
:1004C0008E010F5F1F4F1F930F9374D1C8016ADE17
:1004D0000FB6F894DEBF0FBECDBF26960FB6F894C8
:1004E000DEBF0FBECDBFDF91CF911F910F91089559
:1004F000CF93DF9300D000D000D0CDB7DEB780918E
:100500000A018F93809109018F9383E091E09F937B
:100510008F93CE0101969F938F9379D10F900F9077
:100520000F900F900F900F9026960FB6F894DEBFA5
:100530000FBECDBFDF91CF910895CF93DF9300D051
:1005400000D000D0CDB7DEB780919E018F9380910F
:100550009D018F9383E091E09F938F93CE0101964D
:100560009F938F9354D10F900F900F900F900F90F7
:100570000F9026960FB6F894DEBF0FBECDBFDF9169
:10058000CF9108950F931F93CF93DF9300D000D0A6
:1005900000D0CDB7DEB78AEE8F9380E68F9383E0ED
:1005A00091E09F938F931F9286E08F938E010F5F50
:1005B0001F4F1F930F93FED0C801F4DD0FB6F894C0
:1005C000DEBF0FBECDBF26960FB6F894DEBF0FBEBE
:1005D000CDBFDF91CF911F910F910895CF93DF93FE
:1005E00000D000D000D0CDB7DEB78091AA018F93A4
:1005F0008091A9018F9383E091E09F938F93CE0127
:1006000001969F938F9303D10F900F900F900F90AF
:100610000F900F9026960FB6F894DEBF0FBECDBF99
:10062000DF91CF910895689401C0E8948F929F92D2
:10063000CF93DF9356D0DF91CF919F908F90089505
:10064000DF93CF931F930F939A9DF02D219FF00D71
:100650008B9DF00D8A9DE02DF10D039FF00D029F03
:10066000E00DF11D4E9DE00DF11D5E9DF00D4F9DC5
:10067000F00D7F936F93BF92AF925F934F93D5012D
:100680007ED08B01AC01D7017AD0EB01E80FF91FC6
:10069000D6011FD02F913F91D60171D0C60FD71F21
:1006A000E81FF91FAF91BF9114D02F913F9167D0F0
:1006B000C60FD71FE81FF91FD60161D0E60FF71F3D
:1006C0009801BE01CF0111240F911F91CF91DF91AD
:1006D000089555D0460F571FC81FD91F08F43196EB
:1006E000089588249924F401E401B0E41B2ED40178
:1006F0009D158E049F04E007F10738F4FC014B01BF
:10070000CA01B901AD019E011694220F331F441F87
:10071000551F661F771F881F991F881C991CEE1F85
:10072000FF1FCC1FDD1FAA1FBB1F8A149B04EC05F3
:10073000FD05CE05DF05A007B10748F08A189B0824
:10074000EC09FD09CE09DF09A00BB10B21601A9459
:10075000E1F62EF49401AF01BE01CD01000C089525
:100760000F930F7351F096958795779567955795E9
:100770004795379527950A95B1F70F910895A29F50
:10078000B001B39FC001A39F01D0B29F700D811D26
:100790001124911D0895FB01DC014150504048F0A7
:1007A00001900D920020C9F701C01D9241505040A8
:1007B000E0F70895AEE0B0E0EFEDF3E0C2C20D89DE
:1007C0001E898F89988D26E02C831A83098397FFD1
:1007D00002C080E090E801979E838D83CE014B9606
:1007E000AC01698D7A8DCE01019630D04D815E814C
:1007F00057FD0AC02F813885421753070CF49A0120
:10080000F801E20FF31F10822E96E4E0B6C2AEE0CC
:10081000B0E0ECE0F4E095C20D891E8986E08C839F
:100820001A8309838FEF9FE79E838D83CE014996BC
:10083000AC016F89788DCE01019608D0EF81F885E3
:10084000E00FF11F10822E96E4E097C2ACE0B0E01A
:10085000EBE2F4E068C27C016B018A01FC011782C3
:100860001682838181FFB9C188248394912C8C0ED8
:100870009D1EF7019381F60193FD859193FF819170
:100880006F01882309F4A5C1853239F493FD859160
:1008900093FF81916F01853221F4B70190E0B9D1C6
:1008A000E8CF512C312C20E02032A8F48B3261F0BB
:1008B00028F4803251F0833271F40BC08D3239F05C
:1008C000803349F4216028C02260246025C028605C
:1008D00023C0206121C027FD27C0382F30533A3074
:1008E00078F426FF06C0FAE05F9E300D1124532EE7
:1008F00013C08AE0389E300D1124332E20620CC0C4
:100900008E3221F426FD65C1206406C08C3611F4B8
:10091000206802C0883641F4F60193FD859193FF6B
:1009200081916F018111C0CF982F9554933018F0A9
:100930009052933028F40C5F1F4FFFE3F9830DC0F2
:10094000833631F0833771F0833509F05AC022C005
:10095000F801808189830E5F1F4F44244394512CFA
:10096000540114C03801F2E06F0E711CF801A08030
:10097000B18026FF03C0652D70E002C06FEF7FEFEE
:10098000C5012C873BD12C0183012C856FE7262ED6
:10099000222217C03801F2E06F0E711CF801A0800E
:1009A000B18026FF03C0652D70E002C06FEF7FEFBE
:1009B000C5012C8718D12C012C8550E8252E222A20
:1009C000830123FC1AC005C0B70180E290E021D169
:1009D0003A94832D90E048165906B0F30EC0F50105
:1009E00027FC859127FE81915F01B70190E011D12D
:1009F00031103A94F1E04F1A51084114510479F73B
:100A0000E5C0843611F0893639F5F80127FF07C0B3
:100A100060817181828193810C5F1F4F08C060816A
:100A20007181882777FD8095982F0E5F1F4F4FE6C5
:100A3000B42EB22297FF09C090958095709561956C
:100A40007F4F8F4F9F4FF0E8BF2A2AE030E0A4018C
:100A50000CD1A82EA81842C0853731F43FEEB32E32
:100A6000B2222AE030E024C099EFB92EB2228F36AC
:100A7000B9F020F4883509F0ACC00DC0803721F002
:100A8000883709F0A6C002C020E1B22AB4FE0BC02C
:100A900084E0B82A08C024FF09C0E6E0BE2A06C0E8
:100AA00028E030E005C020E130E002C020E132E083
:100AB000F801B7FE07C060817181828193810C5F6C
:100AC0001F4F06C06081718180E090E00E5F1F4F74
:100AD000A401CBD0A82EA818FFE7BF22B6FE0BC0FA
:100AE0002B2D2E7FA51450F4B4FE0AC0B2FC08C012
:100AF0002B2D2E7E05C07A2C2B2D03C07A2C01C005
:100B0000752C24FF0DC0FE01EA0DF11D808180339C
:100B100011F4297E09C022FF06C07394739404C0A7
:100B2000822F867809F0739423FD13C020FF0EC036
:100B30005A2C731458F4530C5718732C07C0B70170
:100B400080E290E02C8765D073942C857314B8F301
:100B500004C0731410F4371801C0312C24FF11C0E5
:100B6000B70180E390E02C8754D02C8522FF1CC075
:100B700021FF03C088E590E002C088E790E0B7015C
:100B80000CC0822F867881F021FD02C080E201C076
:100B90008BE227FD8DE2B70190E03BD005C0B701A5
:100BA00080E390E036D05A94A514C8F3AA94F401D7
:100BB000EA0DF11DB701808190E02BD0A110F6CF96
:100BC00005C0B70180E290E024D03A943110F9CF0B
:100BD00050CEF7012681378102C02FEF3FEFC901C8
:100BE0002C96E2E1BCC0FC01059061507040011000
:100BF000D8F7809590958E0F9F1F0895FC01615046
:100C0000704001900110D8F7809590958E0F9F1F2E
:100C100008950F931F93CF93DF938C01EB018B818A
:100C200081FD03C00FEF1FEF1AC082FF0DC02E81A0
:100C30003F818C819D812817390764F4E881F9810F
:100C40000193F983E88306C0E885F985802F09952B
:100C5000892B41F78E819F8101969F838E83C801E6
:100C6000DF91CF911F910F910895FA01AA272830A3
:100C700051F1203181F1E8946F936E7F6E5F7F4F69
:100C80008F4F9F4FAF4FB1E03ED0B4E03CD0670FE5
:100C9000781F891F9A1FA11D680F791F8A1F911D38
:100CA000A11D6A0F711D811D911DA11D20D009F488
:100CB00068943F912AE0269F11243019305D3193CA
:100CC000DEF6CF010895462F4770405D4193B3E0B3
:100CD0000FD0C9F7F6CF462F4F70405D4A3318F05A
:100CE000495D31FD4052419302D0A9F7EACFB4E00B
:100CF000A6959795879577956795BA95C9F70097C3
:100D00006105710508959B01AC010A2E0694579563
:100D1000479537952795BA95C9F7620F731F841FBA
:100D2000951FA01D08952F923F924F925F926F9250
:100D30007F928F929F92AF92BF92CF92DF92EF926B
:100D4000FF920F931F93CF93DF93CDB7DEB7CA1BEC
:100D5000DB0B0FB6F894DEBF0FBECDBF09942A8817
:100D6000398848885F846E847D848C849B84AA84BF
:100D7000B984C884DF80EE80FD800C811B81AA814C
:100D8000B981CE0FD11D0FB6F894DEBF0FBECDBF17
:080D9000ED010895F894FFCF76
:060D980025640025750032
:00000001FF
