:1000000022C03CC03BC03AC0B2C138C037C036C0C5
:1000100035C0EBC133C032C031C030C02FC02EC09C
:100020002DC02CC05FC32AC029C028C027C026C04D
:1000300025C024C00CC412C417C41CC421C426C4C7
:100040002BC430C435C411241FBECFEFD4E0DEBFB3
:10005000CDBF11E0A0E0B1E0ECEEF4E102C005900C
:100060000D92AC31B107D9F721E0ACE1B1E001C0AC
:100070001D92AB32B207E1F7ACD336CAC1CFFC0157
:1000800011821082138212821582148217821682C4
:100090001086118612861386148615861686178694
:1000A000108A118A128A138A148A158A168A178A64
:1000B000E85EFD4F10821182128213820895813012
:1000C000910539F4E1E8F0E08081108281E08083DD
:1000D0000895089731F4E1E8F0E08081108282E031
:1000E00080830895FC018091780090917900392FE8
:1000F00020E0282BB09AC901880F991F945064E61C
:1001000070E0D1D57783668308954F925F926F92A6
:100110007F928F929F92AF92BF92CF92DF92EF9297
:10012000FF920F931F93CF93DF93CDB7DEB728973E
:100130000FB6F894DEBF0FBECDBF4C01E090270193
:10014000F0902801FC0180819181459734F488E08A
:1001500090E0B5DF28E030E005C081E090E0AFDF5F
:1001600021E030E0D701B2D52B013C01440C551CF5
:10017000661C771C440C551C661C771C440C551CD3
:10018000661C771C440C551C661C771CA30192014D
:1001900060E070E0CB0149823A834B835C836D83DE
:1001A0007E838F839887A12C0F2EF6E0BF2EF02D33
:1001B000C12CD12CE12CF12C00E010E060E070E0CB
:1001C00080E090E0A6D504E052D6A22EB32EC42E35
:1001D000D52EE62EF72EE82F192F01E048D64957E5
:1001E0005C466C4F7F4F8F4F9F4FD401A85EBD4F31
:1001F000689413F876946794579447941694D1F7BB
:100200004D925D926D927C9213970E2F77D5822F2F
:10021000932FA42FB52F722F632F542F4B2F689439
:1002200013F8B695A795979587951694D1F7F4018D
:10023000808B918BA28BB38B8B3F9105A105B10570
:10024000B8F4EC5EFD4F2FE730E021503109B29158
:10025000A2919291829184839583A683B7832F3F45
:100260008FEF380791F7F401708F618F528F438FB2
:1002700028960FB6F894DEBF0FBECDBFDF91CF91A9
:100280001F910F91FF90EF90DF90CF90BF90AF90B4
:100290009F908F907F906F905F904F9008952F92D6
:1002A0003F924F925F926F927F928F929F92AF9206
:1002B000BF92CF92DF92EF92FF920F931F93CF9353
:1002C000DF93EC01DC015896E0E2F0E020E030E062
:1002D00040E050E060E070E080E090E0CD90DD90A4
:1002E000ED90FD9016012701AC2CB32CC42CD52C1D
:1002F000E12CF12C00E010E0C9D5319779F705E049
:10030000B6D52C8B3D8B4E8B5F8BDF91CF911F91A0
:100310000F91FF90EF90DF90CF90BF90AF909F90A4
:100320008F907F906F905F904F903F902F900895A7
:100330000F931F93CF93DF9300D000D0CDB7DEB7DC
:100340008C0143E050E06FE171E0CE010196E4D50D
:10035000CE010196C4D5F801918380830F900F9050
:100360000F900F90DF91CF911F910F9108951F92E1
:100370000F920FB60F9211242F933F934F935F93D9
:100380008F939F93F894809184009091850090932F
:1003900025018093240120911C0130911D018217B9
:1003A000930748F420953095280F391F3093280182
:1003B0002093270107C0AC01421B530B5093280127
:1003C0004093270190931D0180931C0181E080934D
:1003D000260178949F918F915F914F913F912F913A
:1003E0000F900FBE0F901F9018951F920F920FB68F
:1003F0000F9211242F923F924F925F926F927F92B1
:100400008F929F92AF92BF92CF92DF92EF92FF9224
:100410000F931F932F933F934F935F936F937F930C
:100420008F939F93AF93BF93EF93FF93CF93DF93FC
:10043000CDB7DEB72797DEBFCDBFF894E091290195
:10044000F0912A0180819181AA2797FDA095BA2F6A
:10045000880F991FAA1FBB1F880F991FAA1FBB1FB8
:10046000880F991FAA1FBB1F880F991FAA1FBB1FA8
:100470004489558966897789841B950BA60BB70B30
:1004800046805780662457FC6094762C440C551C9B
:10049000661C771C440C551C661C771C440C551CB0
:1004A000661C771C440C551C661C771C480E591E94
:1004B0006A1E7B1E55824482440C551C661C771CA8
:1004C000440C551C661C771C440C551C661C771C80
:1004D000A5E7B0E0A301920105D44B015C0168944B
:1004E00016F8B594A794979487941694D1F76B0156
:1004F0007C01FF0CCC08DC2C7601282D392D4A2DEF
:100500005B2D6C2D7C2D8C2D9C2DA084B184C28400
:10051000D384E484F58406851785B8D4222E332E3F
:10052000842E952EA62FB72F8E839F832087318709
:10053000428753876487758786879787730162012F
:10054000FF0CCC08DC2C7601242D352D462D572DA3
:100550006C2D7C2D8C2D9C2D01E06BD429833A834E
:100560004B835C83462E572E682E792E752D862D53
:10057000972D06E05ED4A22EB32EC42ED52EE62EE5
:10058000F72E082F192F29813A814B815C81642D28
:10059000752D862D972D7AD4A22EB32EC42ED52E4E
:1005A000E62EF72E082F192F222D332D482D592DE9
:1005B0006A2F7B2F8E819F8169D407E049D448D46C
:1005C000B22EA32FC42ED52EE62EF72E082F192FCC
:1005D0002F3F3105410551056105710581059105E3
:1005E00051F04CF0BB24BA94A0E0C12CD12CE12CEA
:1005F000F12C00E010E0BB2DAA2E2B2D3A2F4C2D14
:100600005D2D6E2D7F2D802F912FA0E048D414F406
:10061000B0E0A12CB283A382B7BDB8BD7894279671
:100620000FB6F894DEBF0FBECDBFDF91CF91FF9123
:10063000EF91BF91AF919F918F917F916F915F915A
:100640004F913F912F911F910F91FF90EF90DF906D
:10065000CF90BF90AF909F908F907F906F905F9062
:100660004F903F902F900F900FBE0F901F901895B6
:10067000CF93DF9300D000D000D0CDB7DEB726E017
:10068000E0E0F1E0DE01119601900D922A95E1F78C
:1006900045E050E0BC01CE0101963ED4BE016F5F43
:1006A0007F4F9E012A5F3F4FE0ECF0E086EC90E048
:1006B000408145FFFDCFDB014D91BD01DC014C9335
:1006C000A1EEB4E01197F1F700C0000062177307C4
:1006D00079F726960FB6F894DEBF0FBECDBFDF9137
:1006E000CF9108951F920F920FB60F9211242F935E
:1006F0008F939F93AF93BF93CF93DF93EF93FF932A
:10070000F8944298419AAEE1B1E083E291E0E0ECE6
:10071000F0E0C6ECD0E020812223ECF728812D9375
:10072000A817B907C1F74198429A81E08093230145
:100730007894FF91EF91DF91CF91BF91AF919F910D
:100740008F912F910F900FBE0F901F90189584B12D
:1007500084B987B1876087B98AB182668AB983EF25
:1007600084BD81E085BD519A1092C50089E18093D6
:10077000C40088E98093C10086E08093C20082E0D3
:100780008093680080E380936C00E1E8F0E0808172
:1007900082608083ECE7F0E0808183648083EAE715
:1007A000F0E08081806A8083EBE7F0E08081866002
:1007B0008083EEE7F0E0808188608083E1EBF0E009
:1007C000808184608083E0E7F0E0808181608083C5
:1007D0000895CF93DF93CDB7DEB7CC51D2400FB69B
:1007E000F894DEBF0FBECDBFCE01019690932A01D3
:1007F0008093290144DC109223011092260110926B
:1008000025011092240110921D0110921C011092DA
:10081000280110922701E0912901F0912A0182E339
:1008200090E09183808393DF78940EE111E08091D2
:100830002301882309F445C0F801808190E0FC0180
:10084000F097E930F105D0F5E65EFF4F099480910D
:10085000290190912A016CDD0AD231C080912901D1
:1008600090912A018AD12BC08091290190912A016F
:100870003FD025C08091290190912A0141D11FC00C
:100880008091290190912A0195D019C08091290168
:1008900090912A0162D013C08091290190912A0180
:1008A000ADD10DC08091290190912A01B8D007C027
:1008B0008091290190912A01E8D001C0D8D11092ED
:1008C000230180912601882309F4B1CF8091290169
:1008D00090912A011ADC8091290190912A01DFDC94
:1008E0008091290190912A01FDDB109226019FCF72
:1008F0000F931F93CF93DF9300D000D000D0CDB7DC
:10090000DEB725E0E6E0F1E08E010F5F1F4FD80172
:1009100001900D922A95E1F7FC0127812F938681A2
:100920008F938CE091E09F938F931F9286E08F933B
:100930001F930F9308D3C8019BDE0FB6F894DEBF58
:100940000FBECDBF26960FB6F894DEBF0FBECDBF4B
:10095000DF91CF911F910F9108950F931F93CF9324
:10096000DF9300D000D000D0CDB7DEB7FC012181ED
:100970002F9380818F938CE091E09F938F931F92B0
:1009800086E08F938E010F5F1F4F1F930F93DBD273
:10099000C8016EDE0FB6F894DEBF0FBECDBF26963F
:1009A0000FB6F894DEBF0FBECDBFDF91CF911F9180
:1009B0000F9108950F931F93CF93DF9300D000D032
:1009C00000D0CDB7DEB725E0E6E0F1E08E010F5FA5
:1009D0001F4FD80101900D922A95E1F7FC01238168
:1009E0002F9382818F9380E191E09F938F931F9249
:1009F00086E08F931F930F93A6D2C80139DE0FB6FE
:100A0000F894DEBF0FBECDBF26960FB6F894DEBFBA
:100A10000FBECDBFDF91CF911F910F9108950F931E
:100A20001F93CF93DF9300D000D000D0CDB7DEB7B7
:100A300085E0E6E0F1E08E010F5F1F4FD8010190E5
:100A40000D928A95E1F7809128018F93809127017B
:100A50008F9383E191E09F938F931F9286E08F9312
:100A60001F930F9370D2C80103DE0FB6F894DEBF58
:100A70000FBECDBF26960FB6F894DEBF0FBECDBF1A
:100A8000DF91CF911F910F9108950F931F93CF93F3
:100A9000DF9300D000D000D0CDB7DEB725E0E6E090
:100AA000F1E08E010F5F1F4FD80101900D922A9542
:100AB000E1F7FC01E85EFD4F83818F9382818F9384
:100AC00081818F9380818F9387E191E09F938F93B2
:100AD0001F9286E08F931F930F9335D2C801C8DD14
:100AE0000FB6F894DEBF0FBECDBF26960FB6F894B2
:100AF000DEBF0FBECDBFDF91CF911F910F91089543
:100B00000F931F93CF93DF9300D000D000D0CDB7C9
:100B1000DEB725E0E6E0F1E08E010F5F1F4FD80160
:100B200001900D922A95E1F7FC01848195819595BC
:100B300087959595879595958795959587959F9395
:100B40008F938CE091E09F938F931F9286E08F9319
:100B50001F930F93F8D1C8018BDD0FB6F894DEBF59
:100B60000FBECDBF26960FB6F894DEBF0FBECDBF29
:100B7000DF91CF911F910F9108950F931F93CF9302
:100B8000DF9300D000D000D0CDB7DEB725E0E6E09F
:100B9000F1E08E010F5F1F4FD80101900D922A9551
:100BA000E1F7FC014489558966897789689413F8CF
:100BB00076956795579547951694D1F77F936F93E0
:100BC0005F934F9387E191E09F938F931F9286E00D
:100BD0008F931F930F93B7D1C8014ADD0FB6F894D6
:100BE000DEBF0FBECDBF26960FB6F894DEBF0FBE98
:100BF000CDBFDF91CF911F910F9108950F931F9358
:100C0000CF93DF9300D000D000D0CDB7DEB725E082
:100C1000E6E0F1E08E010F5F1F4FD80101900D92C9
:100C20002A95E1F7FC0123892F9322892F932189AB
:100C30002F9380898F9387E191E09F938F931F92E9
:100C400086E08F931F930F937ED1C80111DD0FB6FD
:100C5000F894DEBF0FBECDBF26960FB6F894DEBF68
:100C60000FBECDBFDF91CF911F910F910895CF930C
:100C7000DF9300D000D000D0CDB7DEB785E0E6E04E
:100C8000F1E0DE01119601900D928A95E1F7CE0117
:100C90000196EEDC26960FB6F894DEBF0FBECDBFF0
:100CA000DF91CF91089597FB072E16F4009406D09C
:100CB00077FD08D000D107FC05D03EF490958195D2
:100CC0009F4F0895709561957F4F0895A29FB00141
:100CD000B39FC001A39F01D0B29F700D811D11244D
:100CE000911D0895F3DFA59F900DB49F900DA49FD3
:100CF000800D911D11240895689401C0E8948F928D
:100D00009F92CF93DF9356D0DF91CF919F908F909A
:100D10000895DF93CF931F930F939A9DF02D219FFA
:100D2000F00D8B9DF00D8A9DE02DF10D039FF00DD0
:100D3000029FE00DF11D4E9DE00DF11D5E9DF00D39
:100D40004F9DF00D7F936F93BF92AF925F934F9340
:100D5000D501BCDF8B01AC01D701B8DFEB01E80F97
:100D6000F91FD6011FD02F913F91D601AFDFC60FDB
:100D7000D71FE81FF91FAF91BF9114D02F913F915A
:100D8000A5DFC60FD71FE81FF91FD6019FDFE60FAB
:100D9000F71F9801BE01CF0111240F911F91CF9130
:100DA000DF91089593DF460F571FC81FD91F08F41E
:100DB0003196089588249924F401E401B0E41B2EAF
:100DC000D4019D158E049F04E007F10738F4FC015F
:100DD0004B01CA01B901AD019E011694220F331FC8
:100DE000441F551F661F771F881F991F881C991C59
:100DF000EE1FFF1FCC1FDD1FAA1FBB1F8A149B0401
:100E0000EC05FD05CE05DF05A007B10748F08A18FF
:100E10009B08EC09FD09CE09DF09A00BB10B21608D
:100E20001A94E1F62EF49401AF01BE01CD01000C3D
:100E300008950F930F7351F0220F331F441F551F56
:100E4000661F771F881F991F0A95B1F70F910895A4
:100E50000F930F7351F095958795779567955795F3
:100E60004795379527950A95B1F70F9108950F93F8
:100E70000F7351F096958795779567955795479598
:100E8000379527950A95B1F70F9108952A0D3B1DC7
:100E90004C1D5D1D6E1D7F1D801F911F0895002438
:100EA000A7FD00942A173005400550056005700520
:100EB000800590050895AA1BBB1B51E107C0AA1F1E
:100EC000BB1FA617B70710F0A61BB70B881F991FEB
:100ED0005A95A9F780959095BC01CD010895FC0124
:100EE00088279927E89421912032E9F3293010F0DE
:100EF0002E30C8F32B3239F02D3231F4689403C010
:100F00001AD0820F911D219120532A30C8F31EF46C
:100F1000909581959F4F0895FB01DC014150504011
:100F200048F001900D920020C9F701C01D92415078
:100F30005040E0F708957AE0979F902D879F802D8D
:100F4000910D11240895AEE0B0E0E8EAF7E0A3C205
:100F50000D891E898F89988D26E02C831A83098339
:100F600097FF02C080E090E801979E838D83CE01B9
:100F70004B96AC01698D7A8DCE01019611D04D81D1
:100F80005E8157FD0AC02F813885421753070CF444
:100F90009A01F801E20FF31F10822E96E4E097C247
:100FA000ACE0B0E0E5EDF7E068C27C016B018A01DE
:100FB000FC0117821682838181FFB9C18824839442
:100FC000912C8C0E9D1EF7019381F60193FD859166
:100FD00093FF81916F01882309F4A5C1853239F40B
:100FE00093FD859193FF81916F01853221F4B701C3
:100FF00090E0B9D1E8CF512C312C20E02032A8F478
:101000008B3261F028F4803251F0833271F40BC0DE
:101010008D3239F0803349F4216028C02260246089
:1010200025C0286023C0206121C027FD27C0382F9C
:1010300030533A3078F426FF06C0FAE05F9E300D58
:101040001124532E13C08AE0389E300D1124332E04
:1010500020620CC08E3221F426FD65C1206406C0DA
:101060008C3611F4206802C0883641F4F60193FDF5
:10107000859193FF81916F018111C0CF982F955475
:10108000933018F09052933028F40C5F1F4FFFE319
:10109000F9830DC0833631F0833771F0833509F061
:1010A0005AC022C0F801808189830E5F1F4F4424FB
:1010B0004394512C540114C03801F2E06F0E711C9E
:1010C000F801A080B18026FF03C0652D70E002C04A
:1010D0006FEF7FEFC5012C873BD12C0183012C855D
:1010E0006FE7262E222217C03801F2E06F0E711C26
:1010F000F801A080B18026FF03C0652D70E002C01A
:101100006FEF7FEFC5012C8718D12C012C8550E89B
:10111000252E222A830123FC1AC005C0B70180E2D4
:1011200090E021D13A94832D90E048165906B0F30F
:101130000EC0F50127FC859127FE81915F01B70163
:1011400090E011D131103A94F1E04F1A5108411456
:10115000510479F7E5C0843611F0893639F5F80184
:1011600027FF07C060817181828193810C5F1F4FCF
:1011700008C060817181882777FD8095982F0E5F68
:101180001F4F4FE6B42EB22297FF09C0909580956D
:10119000709561957F4F8F4F9F4FF0E8BF2A2AE0EF
:1011A00030E0A4010CD1A82EA81842C0853731F434
:1011B0003FEEB32EB2222AE030E024C099EFB92EE0
:1011C000B2228F36B9F020F4883509F0ACC00DC0DA
:1011D000803721F0883709F0A6C002C020E1B22A8A
:1011E000B4FE0BC084E0B82A08C024FF09C0E6E0C2
:1011F000BE2A06C028E030E005C020E130E002C091
:1012000020E132E0F801B7FE07C060817181828180
:1012100093810C5F1F4F06C06081718180E090E078
:101220000E5F1F4FA401CBD0A82EA818FFE7BF2246
:10123000B6FE0BC02B2D2E7FA51450F4B4FE0AC0B1
:10124000B2FC08C02B2D2E7E05C07A2C2B2D03C09E
:101250007A2C01C0752C24FF0DC0FE01EA0DF11D92
:101260008081803311F4297E09C022FF06C0739467
:10127000739404C0822F867809F0739423FD13C001
:1012800020FF0EC05A2C731458F4530C5718732CAB
:1012900007C0B70180E290E02C8765D073942C855D
:1012A0007314B8F304C0731410F4371801C0312C50
:1012B00024FF11C0B70180E390E02C8754D02C8527
:1012C00022FF1CC021FF03C088E590E002C088E730
:1012D00090E0B7010CC0822F867881F021FD02C01A
:1012E00080E201C08BE227FD8DE2B70190E03BD0A8
:1012F00005C0B70180E390E036D05A94A514C8F336
:10130000AA94F401EA0DF11DB701808190E02BD081
:10131000A110F6CF05C0B70180E290E024D03A9446
:101320003110F9CF50CEF7012681378102C02FEF5F
:101330003FEFC9012C96E2E1BCC0FC010590615071
:1013400070400110D8F7809590958E0F9F1F0895DB
:10135000FC016150704001900110D8F78095909584
:101360008E0F9F1F08950F931F93CF93DF938C01D0
:10137000EB018B8181FD03C00FEF1FEF1AC082FFCD
:101380000DC02E813F818C819D812817390764F41F
:10139000E881F9810193F983E88306C0E885F9853E
:1013A000802F0995892B41F78E819F8101969F831C
:1013B0008E83C801DF91CF911F910F910895FA019B
:1013C000AA27283051F1203181F1E8946F936E7F84
:1013D0006E5F7F4F8F4F9F4FAF4FB1E03ED0B4E075
:1013E0003CD0670F781F891F9A1FA11D680F791FB6
:1013F0008A1F911DA11D6A0F711D811D911DA11DC7
:1014000020D009F468943F912AE0269F11243019D6
:10141000305D3193DEF6CF010895462F4770405D71
:101420004193B3E00FD0C9F7F6CF462F4F70405D20
:101430004A3318F0495D31FD4052419302D0A9F77B
:10144000EACFB4E0A6959795879577956795BA9575
:10145000C9F700976105710508959B01AC010A2E3B
:1014600006945795479537952795BA95C9F7620F12
:10147000731F841F951FA01D08952F923F924F92B6
:101480005F926F927F928F929F92AF92BF92CF9214
:10149000DF92EF92FF920F931F93CF93DF93CDB71D
:1014A000DEB7CA1BDB0B0FB6F894DEBF0FBECDBF95
:1014B00009942A88398848885F846E847D848C8466
:1014C0009B84AA84B984C884DF80EE80FD800C816F
:1014D0001B81AA81B981CE0FD11D0FB6F894DEBF52
:0C14E0000FBECDBFED010895F894FFCFC2
:1014EC0025252525250020202020200025686400A6
:0C14FC0025640025687500256C75000053
:00000001FF
