:1000000019C028C027C026C09BC024C023C022C05E
:1000100021C020C01FC01EC01DC01CC01BC01AC0F4
:1000200019C018C0E0C016C015C014C013C012C05B
:1000300011C010C011241FBECFEFD4E0DEBFCDBF72
:1000400021E0A0E0B1E001C01D92A930B207E1F7C4
:100050001AD132C1D5CF14B887E087B982E68AB900
:10006000089515B818B81BB8089583EF84BD81E0D2
:1000700085BD0895519A1092C50089E18093C4000E
:1000800088E98093C10086E08093C200089598B10A
:1000900021E030E002C0220F331F8A95E2F720955D
:1000A000922398B9089548B121E030E0B90102C027
:1000B000660F771F8A95E2F7CB01842B88B90895E4
:1000C00082E090E0E4DF80E090E0EDDF80910701E6
:1000D00090910801853F910530F40A9690930801AC
:1000E0008093070108958FEF90E09093080180932B
:1000F0000701089580E090E0CADF82E090E0D3DF5E
:1001000080910701909108018B30910530F00A979A
:1001100090930801809307010895109208011092AE
:100120000701089598DF9DDFA0DFA4DF82E08093C0
:1001300068000895FC016083718367BD68BD089500
:100140001F920F920FB60F9211242F933F934F934C
:100150005F936F937F938F939F93AF93BF93CF934F
:10016000DF93EF93FF93C6B1C072D0E026B124FBBA
:10017000882780F990E0D295C295CF70CD27DF70A7
:10018000CD27C82BD92B209721F0C130D10559F0AC
:1001900013C08091050190910601029711F490DF40
:1001A0000BC0A8DF09C08091050190910601892B41
:1001B00011F486DF01C09EDFD0930601C0930501D4
:1001C000FF91EF91DF91CF91BF91AF919F918F916F
:1001D0007F916F915F914F913F912F910F900FBE43
:1001E0000F901F9018951F920F920FB60F92112427
:1001F0002F933F934F936F937F938F939F93AF93DF
:10020000BF93CF93DF93EF93FF93F8944298419A73
:10021000A0E0B1E0BD0125E031E0E0ECF0E0C6ECAB
:10022000D0E040814423ECF748814D93A217B307F7
:10023000C1F74198409AA5E0B1E0E0ECF0E0C6ECEF
:10024000D0E0208125FFFDCF2E9128838FEF9FE303
:100250000197F1F700C0A617B70799F74098429A9F
:100260007894FF91EF91DF91CF91BF91AF919F91E2
:100270008F917F916F914F913F912F910F900FBE72
:100280000F901F901895CF93DF9300D0CDB7DEB7B6
:10029000109206011092050182E390E0909308010C
:1002A000809307013FDF7894CE01019660910701AA
:0C02B000709108013FDFFACFF894FFCFF7
:00000001FF
