:1000000023C03DC03CC03BC02EC239C038C037C041
:1000100036C035C034C033C032C031C030C02FC04C
:100020002EC02DC098C22BC02AC029C028C027C00E
:1000300026C025C01EC321C324C327C32AC32DC382
:1000400030C333C336C339C311241FBECFEFD4E04E
:10005000DEBFCDBF11E0A0E0B1E0ECEFF1E102C006
:1000600005900D92AA31B107D9F721E0AAE1B1E0DC
:1000700001C01D92A732B207E1F7C6D2BDC8C0CFFA
:10008000FC01118210821382128214821582168260
:1000900017821086118612861386DC01A457BF4F83
:1000A0001D921D921D921C92139714961D921C92E4
:1000B000EE56FF4F1182108208952F923F924F9279
:1000C0005F926F927F928F929F92AF92BF92CF92E8
:1000D000DF92EF92FF920F931F93CF93DF93CDB7F1
:1000E000DEB72C970FB6F894DEBF0FBECDBF9A8750
:1000F00089878091250190912601A0E0B0E0880FCA
:10010000991FAA1FBB1F880F991FAA1FBB1F880F0B
:10011000991FAA1FBB1F880F991FAA1FBB1F880FFB
:10012000991FAA1FBB1F880F991FAA1FBB1F9C01E5
:10013000AD01220F331F441F551F29833A834B8380
:100140005C8319012A01332D442D552D60E070E0A8
:1001500080E090E002E0FAD4A22CB32CC42CD52C81
:10016000E12CF12C00E010E031D502E0EFD400E00A
:100170002DD5A22EB32EC42ED52EE62EF72EE82F87
:10018000192F03E0E3D40E2F21D502E0DFD4A22CF7
:10019000B32CC42CD52CE12CF12C00E010E016D5AA
:1001A000E22FF32FB42FA52F6B877C878F8398873F
:1001B00002E0CCD4A22EB32EC42ED52EE62EF72EDE
:1001C000082F192F2E2F3F2F4B2F5A2F6B857C85F1
:1001D0008F819885F2D4A22CB32CC42CD52CE12C81
:1001E000F12C00E010E0E9D404E0CBD4A22EB32E31
:1001F000C42ED52EE62EF72EA82F192F01E0C1D43C
:1002000049575C466C4F7F4F8F4F9F4F89849A842C
:10021000B0E98B0E911C49805A806B807C80689479
:1002200013F876946794579447941694D1F7F40191
:1002300040825182628273820A2F3ED4822F932F92
:10024000A42FB52F722F632F542F4B2F689413F8C0
:10025000B695A795979587951694D1F7E985FA8570
:1002600080879187A287B38787399105A105B1055A
:1002700010F5E457FF4F2FE130E009851A85215032
:100280003109B291A2919291829184839583A68340
:10029000B7832F3F8FEF380791F71A870987D80167
:1002A00050967C93509751966C93519752965C93CD
:1002B000529753964C932C960FB6F894DEBF0FBE10
:1002C000CDBFDF91CF911F910F91FF90EF90DF9005
:1002D000CF90BF90AF909F908F907F906F905F90E6
:1002E0004F903F902F9008952F923F924F925F92A0
:1002F0006F927F928F929F92AF92BF92CF92DF9236
:10030000EF92FF920F931F93CF93DF93EC01DC01E9
:100310005096E0E2F0E020E030E040E050E060E0C5
:1003200070E080E090E0CD90DD90ED90FD901601C2
:100330002701AC2CB32CC42CD52CE12CF12C00E0E3
:1003400010E03BD43197309771F705E01AD404E000
:1003500018D42C873D874E875F87DF91CF911F91FF
:100360000F91FF90EF90DF90CF90BF90AF909F9054
:100370008F907F906F905F904F903F902F90089557
:100380008F929F92AF92BF92CF92DF92EF92FF92A5
:100390000F93FC01C080D180E12CF12C4485558560
:1003A00066857785C41AD50AE60AF70ADC01AA56DB
:1003B000BF4FCD92DC92CC0CDD1CEE1CFF1CCC0C94
:1003C000DD1CEE1CFF1CCC0CDD1CEE1CFF1CCC0C41
:1003D000DD1CEE1CFF1C46015701BB0C8808982C45
:1003E00054012C2D3D2D4E2D5F2D682D782D882DFF
:1003F000982D05E0ABD304E0C2D3C1D3228333836D
:10040000F22FB32EC42ED52EE62EF72EB82FA92FFD
:100410002F3F3105410551056105710581059105A4
:1004200049F044F0FFEFB12CC12CD12CE12CF12C80
:10043000B0E0A0E0EF2F2F2F3B2D4C2D5D2D6E2D2A
:100440007F2D8B2F9A2FA0E0CAD30CF4E0E0E7BDFC
:10045000E8BD0F91FF90EF90DF90CF90BF90AF90ED
:100460009F908F9008951F920F920FB60F921124B4
:100470002F933F934F935F938F939F93F894809123
:100480008400909185009093230180932201209114
:100490001A0130911B018217930748F4209530957B
:1004A000280F391F309326012093250107C0AC0186
:1004B000421B530B509326014093250190931B013F
:1004C00080931A0181E08093240178949F918F9109
:1004D0005F914F913F912F910F900FBE0F901F9002
:1004E0001895CF93DF9300D000D000D0CDB7DEB702
:1004F00026E0E0E0F1E0DE01119601900D922A95F0
:10050000E1F745E050E0BC01CE01019691D3BE0178
:100510006F5F7F4F9E012A5F3F4FE0ECF0E086EC7B
:1005200090E0408145FFFDCFDB014D91BD01DC0135
:100530004C93A1EEB4E01197F1F700C000006217F0
:10054000730779F726960FB6F894DEBF0FBECDBFBE
:10055000DF91CF9108951F920F920FB60F92112441
:100560002F938F939F93AF93BF93CF93DF93EF938B
:10057000FF93F8944298419AACE1B1E081E291E0B6
:10058000E0ECF0E0C6ECD0E020812223ECF72881FB
:100590002D93A817B907C1F74198429A81E080933B
:1005A00021017894FF91EF91DF91CF91BF91AF91AD
:1005B0009F918F912F910F900FBE0F901F901895C4
:1005C00084B184B987B1876087B98AB182668AB9F4
:1005D00083EF84BD81E085BD519A1092C50089E109
:1005E0008093C40088E98093C10086E08093C200B4
:1005F00082E08093680080E380936C00E1E8F0E0A3
:100600008081826080830895CF93DF93CDB7DEB77A
:10061000C859D1090FB6F894DEBF0FBECDBFCE01C9
:1006200001962EDD109221011092240110922301D7
:100630001092220110921B0110921A0110922601B1
:10064000109225018EE190E09A838983B9DF789436
:100650000CE111E0809121018823B1F1F801808142
:1006600090E0FC01F097EA30F10558F5E65EFF4FA7
:100670000994CE01019638D025C0CE0101964ED006
:1006800021C0CE0101964BD01DC0CE0101967AD07B
:1006900019C0CE010196A3D015C0CE010196D4D0C9
:1006A00011C0CE01019606D10DC0CE0101963DD1FB
:1006B00009C0CE01019670D105C0CE010196A5D129
:1006C00001C0DCD11092210180912401882341F0E6
:1006D000CE010196F2DCCE01019606DE10922401D5
:1006E000CE0101964DDEB6CFCF93DF9300D000D080
:1006F00000D0CDB7DEB745E050E066E071E0CE0156
:10070000019696D2CE010196ECDE26960FB6F894AD
:10071000DEBF0FBECDBFDF91CF91089508950F9337
:100720001F93CF93DF93CDB7DEB72A970FB6F89418
:10073000DEBF0FBECDBF8C0185E0E8E0F1E0DE0159
:10074000119601900D928A95E1F743E050E06DE13A
:1007500071E0CE0107966CD2CE0107964CD2F8011B
:100760008083918387BD88BDCE010196BADE2A962B
:100770000FB6F894DEBF0FBECDBFDF91CF911F91B2
:100780000F9108950F931F93CF93DF9300D000D064
:1007900000D0CDB7DEB7FC0121812F9380818F93EC
:1007A0008EE091E09F938F931F9286E08F938E014E
:1007B0000F5F1F4F1F930F9352D2C80192DE0FB6E7
:1007C000F894DEBF0FBECDBF26960FB6F894DEBFFD
:1007D0000FBECDBFDF91CF911F910F9108950F9361
:1007E0001F93CF93DF9300D000D000D0CDB7DEB7FA
:1007F00025E0E8E0F1E08E010F5F1F4FD801019086
:100800000D922A95E1F7FC0123812F9382818F932A
:1008100082E191E09F938F931F9286E08F931F93C5
:100820000F931DD2C8015DDE0FB6F894DEBF0FBE78
:10083000CDBF26960FB6F894DEBF0FBECDBFDF91B9
:10084000CF911F910F9108950F931F93CF93DF9333
:1008500000D000D000D0CDB7DEB785E0E8E0F1E011
:100860008E010F5F1F4FD80101900D928A95E1F71D
:10087000809126018F93809125018F938EE091E0E6
:100880009F938F931F9286E08F931F930F93E7D1CF
:10089000C80127DE0FB6F894DEBF0FBECDBF269687
:1008A0000FB6F894DEBF0FBECDBFDF91CF911F9181
:1008B0000F9108950F931F93CF93DF9300D000D033
:1008C00000D0CDB7DEB725E0E8E0F1E08E010F5FA4
:1008D0001F4FD80101900D922A95E1F7FC01E057D6
:1008E000FF4F83818F9382818F9381818F9380814A
:1008F0008F9385E191E09F938F931F9286E08F9372
:100900001F930F93ACD1C801ECDD0FB6F894DEBF96
:100910000FBECDBF26960FB6F894DEBF0FBECDBF7B
:10092000DF91CF911F910F9108950F931F93CF9354
:10093000DF9300D000D000D0CDB7DEB725E0E8E0EF
:10094000F1E08E010F5F1F4FD80101900D922A95A3
:10095000E1F7FC01EA56FF4F81818F9380818F93ED
:100960008EE091E09F938F931F9286E08F931F9369
:100970000F9375D1C801B5DD0FB6F894DEBF0FBE79
:10098000CDBF26960FB6F894DEBF0FBECDBFDF9168
:10099000CF911F910F9108950F931F93CF93DF93E2
:1009A00000D000D000D0CDB7DEB725E0E8E0F1E020
:1009B0008E010F5F1F4FD80101900D922A95E1F72C
:1009C000FC0127852F9326852F9325852F938485DA
:1009D0008F9385E191E09F938F931F9286E08F9391
:1009E0001F930F933CD1C8017CDD0FB6F894DEBF96
:1009F0000FBECDBF26960FB6F894DEBF0FBECDBF9B
:100A0000DF91CF911F910F9108950F931F93CF9373
:100A1000DF9300D000D000D0CDB7DEB725E0E8E00E
:100A2000F1E08E010F5F1F4FD80101900D922A95C2
:100A3000E1F7FC0123852F9322852F9321852F93A6
:100A400080858F9385E191E09F938F931F9286E03D
:100A50008F931F930F9303D1C80143DD0FB6F89412
:100A6000DEBF0FBECDBF26960FB6F894DEBF0FBE19
:100A7000CDBFDF91CF911F910F910895CF93DF9359
:100A800000D000D000D0CDB7DEB785E0E8E0F1E0DF
:100A9000DE01119601900D928A95E1F7CE01019643
:100AA00020DD26960FB6F894DEBF0FBECDBFDF91D6
:100AB000CF910895689401C0E8948F929F92CF934C
:100AC000DF9305D0DF91CF919F908F900895882478
:100AD0009924F401E401B0E41B2ED4019D158E0489
:100AE0009F04E007F10738F4FC014B01CA01B9018A
:100AF000AD019E011694220F331F441F551F661F20
:100B0000771F881F991F881C991CEE1FFF1FCC1F81
:100B1000DD1FAA1FBB1F8A149B04EC05FD05CE0533
:100B2000DF05A007B10748F08A189B08EC09FD090A
:100B3000CE09DF09A00BB10B21601A94E1F62EF467
:100B40009401AF01BE01CD01000C08950F93083050
:100B500090F0982F872F762F652F542F432F322F09
:100B600022270850F4CF220F331F441F551F661F42
:100B7000771F881F991F0A95B2F70F91089597FB69
:100B800010F8169400080F93083098F00850232F9F
:100B9000342F452F562F672F782F892F902DF4CF84
:100BA00005949795879577956795579547953795C8
:100BB00027950A95AAF70F9108952A0D3B1D4C1D04
:100BC0005D1D6E1D7F1D801F911F08952A193B0911
:100BD0004C095D096E097F09800B910B0895002473
:100BE000A7FD00942A1730054005500560057005E3
:100BF000800590050895FC0188279927E8942191A4
:100C00002032E9F3293010F02E30C8F32B3239F0BE
:100C10002D3231F4689403C01AD0820F911D2191B6
:100C200020532A30C8F31EF4909581959F4F089564
:100C3000FB01DC014150504048F001900D92002032
:100C4000C9F701C01D9241505040E0F708957AE085
:100C5000979F902D879F802D910D11240895AEE0D0
:100C6000B0E0E4E3F6E09FC20D891E898F89988D7C
:100C700026E02C831A83098397FF02C080E090E866
:100C800001979E838D83AE01455E5F4F698D7A8D9E
:100C9000CE01019611D04D815E8157FD0AC02F8192
:100CA0003885421753070CF49A01F801E20FF31F3D
:100CB00010822E96E4E093C2ACE0B0E0E1E6F6E00C
:100CC00064C27C016B018A01FC0117821682838158
:100CD00081FFB0C1CE0101964C01F7019381F6016D
:100CE00093FD859193FF81916F01882309F49EC143
:100CF000853239F493FD859193FF81916F0185329F
:100D000021F4B70190E0B1D1E8CF512C312C20E093
:100D10002032A0F48B3269F030F4803259F0833203
:100D200069F420612CC08D3239F0803339F42160B0
:100D300026C02260246023C0286021C027FD27C070
:100D400030ED380F3A3078F426FF06C0FAE05F9EA7
:100D5000300D1124532E13C08AE0389E300D11241B
:100D6000332E20620CC08E3221F426FD5FC1206438
:100D700006C08C3611F4206802C0883641F4F601B2
:100D800093FD859193FF81916F018111C1CF982FC0
:100D90009F7D9554933028F40C5F1F4FFFE3F98338
:100DA0000DC0833631F0833771F0833509F057C0B9
:100DB00021C0F801808189830E5F1F4F4424439432
:100DC000512C540114C03801F2E06F0E711CF8016F
:100DD000A080B18026FF03C0652D70E002C06FEFD8
:100DE0007FEFC5012C8736D12C0183012C852F770D
:100DF000222E16C03801F2E06F0E711CF801A0809F
:100E0000B18026FF03C0652D70E002C06FEF7FEF59
:100E1000C5012C8714D12C012C852068222E83013A
:100E200023FC19C0832D90E048165906A0F4B701A1
:100E300080E290E01AD13A94F5CFF50127FC859134
:100E400027FE81915F01B70190E00FD131103A94F4
:100E5000F1E04F1A51084114510479F7DEC084368D
:100E600011F0893631F5F80127FF07C060817181E3
:100E7000828193810C5F1F4F08C060817181882738
:100E800077FD8095982F0E5F1F4F2F76B22E97FF1C
:100E900009C090958095709561957F4F8F4F9F4FBA
:100EA0002068B22E2AE030E0A40111D1A82EA818A3
:100EB00043C0853729F42F7EB22E2AE030E025C0CA
:100EC000F22FF97FBF2E8F36C1F018F4883579F0F4
:100ED000ADC0803719F0883721F0A8C02F2F2061CE
:100EE000B22EB4FE0DC08B2D8460B82E09C024FF35
:100EF0000AC09F2F9660B92E06C028E030E005C0DA
:100F000020E130E002C020E132E0F801B7FE07C086
:100F100060817181828193810C5F1F4F06C0608167
:100F2000718180E090E00E5F1F4FA401D0D0A82E09
:100F3000A818FB2DFF77BF2EB6FE0BC02B2D2E7FE2
:100F4000A51450F4B4FE0AC0B2FC08C02B2D2E7EAE
:100F500005C07A2C2B2D03C07A2C01C0752C24FFE0
:100F60000DC0FE01EA0DF11D8081803311F4297E50
:100F700009C022FF06C07394739404C0822F867840
:100F800009F0739423FD12C020FF06C05A2C73147D
:100F900018F4530C5718732C731460F4B70180E2E3
:100FA00090E02C8762D073942C85F6CF731410F4E4
:100FB000371801C0312C24FF11C0B70180E390E045
:100FC0002C8753D02C8522FF16C021FF03C088E553
:100FD00090E002C088E790E0B7010CC0822F8678CD
:100FE00051F021FD02C080E201C08BE227FD8DE2BD
:100FF000B70190E03AD0A51430F4B70180E390E057
:1010000034D05A94F8CFAA94F401EA0DF11D8081EE
:10101000B70190E02AD0A110F6CF332009F45DCEBD
:10102000B70180E290E021D03A94F7CFF7018681B2
:10103000978102C08FEF9FEF2C96E2E1C2C0FC01C6
:101040000590615070400110D8F7809590958E0FF3
:101050009F1F0895FC016150704001900110D8F766
:10106000809590958E0F9F1F08950F931F93CF9398
:10107000DF93182F092FEB018B8181FD03C08FEFC8
:101080009FEF20C082FF10C04E815F812C813D8187
:10109000421753077CF4E881F9819F012F5F3F4F8E
:1010A00039832883108306C0E885F985812F099547
:1010B000892B29F72E813F812F5F3F4F3F832E835E
:1010C000812F902FDF91CF911F910F910895FA01F9
:1010D000AA27283051F1203181F1E8946F936E7F77
:1010E0006E5F7F4F8F4F9F4FAF4FB1E03ED0B4E068
:1010F0003CD0670F781F891F9A1FA11D680F791FA9
:101100008A1F911DA11D6A0F711D811D911DA11DB9
:1011100020D009F468943F912AE0269F11243019C9
:10112000305D3193DEF6CF010895462F4770405D64
:101130004193B3E00FD0C9F7F6CF462F4F70405D13
:101140004A3318F0495D31FD4052419302D0A9F76E
:10115000EACFB4E0A6959795879577956795BA9568
:10116000C9F700976105710508959B01AC010A2E2E
:1011700006945795479537952795BA95C9F7620F05
:10118000731F841F951FA01D08952F923F924F92A9
:101190005F926F927F928F929F92AF92BF92CF9207
:1011A000DF92EF92FF920F931F93CF93DF93CDB710
:1011B000DEB7CA1BDB0B0FB6F894DEBF0FBECDBF88
:1011C00009942A88398848885F846E847D848C8459
:1011D0009B84AA84B984C884DF80EE80FD800C8162
:1011E0001B81AA81B981CE0FD11D0FB6F894DEBF45
:0C11F0000FBECDBFED010895F894FFCFB5
:1011FC002525252525000A002020202020002568F3
:0A120C007500256400256C750000D4
:00000001FF
