:1000000019C028C027C026C0A0C024C023C022C059
:1000100021C020C01FC01EC01DC01CC01BC01AC0F4
:1000200019C018C0E5C016C015C014C013C012C056
:1000300011C010C011241FBECFEFD4E0DEBFCDBF72
:1000400021E0A0E0B1E001C01D92A930B207E1F7C4
:1000500010D128C1D5CF14B887E087B982E68AB914
:10006000089515B818B81BB8089583EF84BD81E0D2
:1000700085BD0895519A1092C50089E18093C4000E
:1000800088E98093C10086E08093C200089582E0F1
:100090008093680080E380936C00089598B121E01C
:1000A00030E002C0220F331F8A95E2F72095922399
:1000B00098B9089548B121E030E0B90102C0660F57
:1000C000771F8A95E2F7CB01842B88B9089582E0E7
:1000D00090E0E4DF80E090E0EDDF80910701909117
:1000E0000801853F910530F40A96909308018093AA
:1000F000070108958FEF90E0909308018093070126
:10010000089580E090E0CADF82E090E0D3DF809144
:100110000701909108018B30910530F00A97909378
:1001200008018093070108951092080110920701B9
:10013000089591DF96DF99DF9DDFA9DF0895FC0127
:100140006083718367BD68BD08951F920F920FB6DB
:100150000F9211242F933F934F935F936F937F934D
:100160008F939F93AF93BF93CF93DF93EF93FF93BF
:10017000C6B1C072D0E026B124FB882780F990E098
:10018000D295C295CF70CD27DF70CD27C82BD92B44
:10019000209721F0C130D10559F013C0809105019D
:1001A00090910601029711F492DF0BC0AADF09C0FB
:1001B0008091050190910601892B11F488DF01C01F
:1001C000A0DFD0930601C0930501FF91EF91DF916D
:1001D000CF91BF91AF919F918F917F916F915F91DF
:1001E0004F913F912F910F900FBE0F901F90189538
:1001F0001F920F920FB60F9211242F933F934F939C
:100200008F939F93AF93BF93CF93DF93EF93FF931E
:10021000F894A0E0B1E0CD0125E031E0E0ECF0E0C1
:10022000C6ECD0E040814423ECF748814D93A217FF
:10023000B307C1F7A5E0B1E0E0ECF0E0C6ECD0E038
:10024000208125FFFDCF2E912883A817B907C1F77C
:100250007894FF91EF91DF91CF91BF91AF919F91F2
:100260008F914F913F912F910F900FBE0F901F9044
:100270001895CF93DF9300D0CDB7DEB7109206016B
:100280001092050182E390E09093080180930701AA
:1002900050DF7894CE0101966091070170910801BA
:0802A0004EDFFACFF894FFCF06
:00000001FF
