:1000000019C020C01FC01EC01DC01CC01BC01AC00C
:1000100019C018C017C016C015C014C013C012C034
:1000200011C010C00FC00EC00DC00CC00BC00AC064
:1000300009C008C011241FBECFEFD4E0DEBFCDBF82
:100040001BD067C0DDCF98B121E030E002C0220FA5
:10005000331F8A95E2F72095922398B9089548B105
:1000600021E030E0B90102C0660F771F8A95E2F700
:10007000CB01842B88B9089587E087B9ECE7F0E0DD
:10008000808183648083EAE7F0E08081806A8083F6
:10009000EBE7F0E0808186608083EEE7F0E080812E
:1000A000886080830F2EF8E7EF2EF12CF02D09E702
:1000B00010E0F7018081F8019081D92FF0E0CF2F77
:1000C0009E01282BC901B09A8D3231E0930754F478
:1000D00080E090E0C4DF81E090E0B5DF82E090E076
:1000E000B2DFE7CF8935924054F480E090E0ABDF97
:1000F00081E090E0B4DF82E090E0A5DFDACF80E03D
:1001000090E0A1DF81E090E0AADF82E090E09BDF59
:06011000D0CFF894FFCFF0
:00000001FF
