S0120000696E74657272757074732E73726563B2
S113000019C028C027C026C04DC024C023C022C0A8
S113001021C020C01FC01EC01DC01CC01BC01AC0F0
S113002019C018C017C016C015C014C013C012C020
S113003011C010C011241FBECFEFD4E0DEBFCDBF6E
S113004021E0A0E0B1E001C01D92A230B207E1F7C7
S11300507CD085C0D5CF98B121E030E002C0220F1A
S1130060331F8A95E2F72095922398B9089548B1F1
S113007021E030E0B90102C0660F771F8A95E2F7EC
S1130080CB01842B88B9089582E090E0E4DF80E01E
S113009090E0EDDF089580E090E0DDDF82E090E025
S11300A0E6DF08951F920F920FB60F9211242F933B
S11300B03F934F935F936F937F938F939F93AF93EC
S11300C0BF93CF93DF93EF93FF93C6B1C072D0E099
S11300D026B124FB882780F990E0D295C295CF7091
S11300E0CD27DF70CD27C82BD92B209721F0C13025
S11300F0D105A1F40AC080910001909101010297F9
S113010011F4C2DF0BC0C7DF09C0809100019091D8
S11301100101892B11F4B8DF01C0BDDFD0930101C7
S1130120C0930001FF91EF91DF91CF91BF91AF9107
S11301309F918F917F916F915F914F913F912F91FB
S11301400F900FBE0F901F90189587E087B982E03B
S11301508093680080E380936C007894FFCFF894D8
S1050160FFCFCB
S9030000FC
